{
	"data": {
		"bytecode": {
			"linkReferences": {},
			"object": "6080604052348015600e575f80fd5b50612de68061001c5f395ff3fe608060405234801561000f575f80fd5b50600436106100a6575f3560e01c806362a0b4fd1161006f57806362a0b4fd1461016057806364e87a6614610191578063af769690146101ad578063e98980b0146101c9578063fa750843146101e5578063fcfcfd0114610215576100a6565b8062c310bb146100aa578063196c0a1d146100da5780633275d0651461010a57806343792cb41461012657806349cc513614610142575b5f80fd5b6100c460048036038101906100bf9190611cec565b610231565b6040516100d19190611d7a565b60405180910390f35b6100f460048036038101906100ef9190611cec565b610376565b6040516101019190611f27565b60405180910390f35b610124600480360381019061011f9190611f47565b6105ef565b005b610140600480360381019061013b9190611feb565b6108e1565b005b61014a610a2a565b60405161015791906120ed565b60405180910390f35b61017a60048036038101906101759190612137565b610afe565b604051610188929190612216565b60405180910390f35b6101ab60048036038101906101a69190612244565b610de3565b005b6101c760048036038101906101c29190611cec565b6110fd565b005b6101e360048036038101906101de9190612137565b611355565b005b6101ff60048036038101906101fa9190611feb565b61181c565b60405161020c91906120ed565b60405180910390f35b61022f600480360381019061022a9190611cec565b61197d565b005b5f805f846040516102429190612336565b90815260200160405180910390205f01805461025d90612379565b90501161029f576040517f08c379a0000000000000000000000000000000000000000000000000000000008152600401610296906123f3565b60405180910390fd5b5f80846040516102af9190612336565b9081526020016040518091039020600101836040516102ce9190612336565b90815260200160405180910390205f0180546102e990612379565b90501161032b576040517f08c379a00000000000000000000000000000000000000000000000000000000081526004016103229061245b565b60405180910390fd5b5f8360405161033a9190612336565b9081526020016040518091039020600101826040516103599190612336565b908152602001604051809103902060010180549050905092915050565b60605f80846040516103889190612336565b90815260200160405180910390205f0180546103a390612379565b9050116103e5576040517f08c379a00000000000000000000000000000000000000000000000000000000081526004016103dc906123f3565b60405180910390fd5b5f80846040516103f59190612336565b9081526020016040518091039020600101836040516104149190612336565b90815260200160405180910390205f01805461042f90612379565b905011610471576040517f08c379a00000000000000000000000000000000000000000000000000000000081526004016104689061245b565b60405180910390fd5b5f836040516104809190612336565b90815260200160405180910390206001018260405161049f9190612336565b9081526020016040518091039020600101805480602002602001604051908101604052809291908181526020015f905b828210156105e3578382905f5260205f2090600202016040518060400160405290815f820180546104ff90612379565b80601f016020809104026020016040519081016040528092919081815260200182805461052b90612379565b80156105765780601f1061054d57610100808354040283529160200191610576565b820191905f5260205f20905b81548152906001019060200180831161055957829003601f168201915b50505050508152602001600182015f9054906101000a900473ffffffffffffffffffffffffffffffffffffffff1673ffffffffffffffffffffffffffffffffffffffff1673ffffffffffffffffffffffffffffffffffffffff1681525050815260200190600101906104cf565b50505050905092915050565b5f80846040516105ff9190612336565b90815260200160405180910390205f01805461061a90612379565b90501161065c576040517f08c379a0000000000000000000000000000000000000000000000000000000008152600401610653906123f3565b60405180910390fd5b5f808460405161066c9190612336565b90815260200160405180910390206001018360405161068b9190612336565b90815260200160405180910390205f0180546106a690612379565b9050116106e8576040517f08c379a00000000000000000000000000000000000000000000000000000000081526004016106df9061245b565b60405180910390fd5b5f836040516106f79190612336565b9081526020016040518091039020600101826040516107169190612336565b90815260200160405180910390206002015f3373ffffffffffffffffffffffffffffffffffffffff1673ffffffffffffffffffffffffffffffffffffffff1681526020019081526020015f205f9054906101000a900460ff166107ae576040517f08c379a00000000000000000000000000000000000000000000000000000000081526004016107a5906124c3565b60405180910390fd5b5f60405180604001604052808381526020013373ffffffffffffffffffffffffffffffffffffffff1681525090505f846040516107eb9190612336565b90815260200160405180910390206001018360405161080a9190612336565b908152602001604051809103902060010181908060018154018082558091505060019003905f5260205f2090600202015f909190919091505f820151815f019081610855919061267e565b506020820151816001015f6101000a81548173ffffffffffffffffffffffffffffffffffffffff021916908373ffffffffffffffffffffffffffffffffffffffff16021790555050507f78e20b417d561af6368683d8a739d539dd337e7de40491a379c946d5ecd325b6848484336040516108d3949392919061274d565b60405180910390a150505050565b5f815111610924576040517f08c379a000000000000000000000000000000000000000000000000000000000815260040161091b906127ef565b60405180910390fd5b5f80826040516109349190612336565b90815260200160405180910390205f01805461094f90612379565b905014610991576040517f08c379a000000000000000000000000000000000000000000000000000000000815260040161098890612857565b60405180910390fd5b805f826040516109a19190612336565b90815260200160405180910390205f0190816109bd919061267e565b50600181908060018154018082558091505060019003905f5260205f20015f9091909190915090816109ef919061267e565b507fbe0d9cac8b45fe60e0e3dde6d4667524af915e9a08abd13aa354c9b82f0756db81604051610a1f9190612875565b60405180910390a150565b60606001805480602002602001604051908101604052809291908181526020015f905b82821015610af5578382905f5260205f20018054610a6a90612379565b80601f0160208091040260200160405190810160405280929190818152602001828054610a9690612379565b8015610ae15780601f10610ab857610100808354040283529160200191610ae1565b820191905f5260205f20905b815481529060010190602001808311610ac457829003601f168201915b505050505081526020019060010190610a4d565b50505050905090565b60605f805f86604051610b119190612336565b90815260200160405180910390205f018054610b2c90612379565b905011610b6e576040517f08c379a0000000000000000000000000000000000000000000000000000000008152600401610b65906123f3565b60405180910390fd5b5f8086604051610b7e9190612336565b908152602001604051809103902060010185604051610b9d9190612336565b90815260200160405180910390205f018054610bb890612379565b905011610bfa576040517f08c379a0000000000000000000000000000000000000000000000000000000008152600401610bf19061245b565b60405180910390fd5b5f85604051610c099190612336565b908152602001604051809103902060010184604051610c289190612336565b9081526020016040518091039020600101805490508310610c7e576040517f08c379a0000000000000000000000000000000000000000000000000000000008152600401610c75906128df565b60405180910390fd5b5f8086604051610c8e9190612336565b908152602001604051809103902060010185604051610cad9190612336565b90815260200160405180910390206001018481548110610cd057610ccf6128fd565b5b905f5260205f2090600202016040518060400160405290815f82018054610cf690612379565b80601f0160208091040260200160405190810160405280929190818152602001828054610d2290612379565b8015610d6d5780601f10610d4457610100808354040283529160200191610d6d565b820191905f5260205f20905b815481529060010190602001808311610d5057829003601f168201915b50505050508152602001600182015f9054906101000a900473ffffffffffffffffffffffffffffffffffffffff1673ffffffffffffffffffffffffffffffffffffffff1673ffffffffffffffffffffffffffffffffffffffff16815250509050805f015181602001519250925050935093915050565b5f8085604051610df39190612336565b90815260200160405180910390205f018054610e0e90612379565b905011610e50576040517f08c379a0000000000000000000000000000000000000000000000000000000008152600401610e47906123f3565b60405180910390fd5b5f8085604051610e609190612336565b908152602001604051809103902060010184604051610e7f9190612336565b90815260200160405180910390205f018054610e9a90612379565b905011610edc576040517f08c379a0000000000000000000000000000000000000000000000000000000008152600401610ed39061245b565b60405180910390fd5b5f84604051610eeb9190612336565b908152602001604051809103902060010183604051610f0a9190612336565b9081526020016040518091039020600101805490508210610f60576040517f08c379a0000000000000000000000000000000000000000000000000000000008152600401610f57906128df565b60405180910390fd5b3373ffffffffffffffffffffffffffffffffffffffff165f85604051610f869190612336565b908152602001604051809103902060010184604051610fa59190612336565b90815260200160405180910390206001018381548110610fc857610fc76128fd565b5b905f5260205f2090600202016001015f9054906101000a900473ffffffffffffffffffffffffffffffffffffffff1673ffffffffffffffffffffffffffffffffffffffff161461104d576040517f08c379a00000000000000000000000000000000000000000000000000000000081526004016110449061299a565b60405180910390fd5b805f8560405161105d9190612336565b90815260200160405180910390206001018460405161107c9190612336565b9081526020016040518091039020600101838154811061109f5761109e6128fd565b5b905f5260205f2090600202015f0190816110b9919061267e565b507ff63152efc0cfbaea746d4dd82195ea1801d98fb559507311293c46d7fee6d702848484846040516110ef94939291906129b8565b60405180910390a150505050565b5f825111611140576040517f08c379a0000000000000000000000000000000000000000000000000000000008152600401611137906127ef565b60405180910390fd5b5f815111611183576040517f08c379a000000000000000000000000000000000000000000000000000000000815260040161117a90612a5a565b60405180910390fd5b5f80836040516111939190612336565b90815260200160405180910390205f0180546111ae90612379565b9050116111f0576040517f08c379a00000000000000000000000000000000000000000000000000000000081526004016111e7906123f3565b60405180910390fd5b5f80836040516112009190612336565b90815260200160405180910390206001018260405161121f9190612336565b90815260200160405180910390205f01805461123a90612379565b90501461127c576040517f08c379a000000000000000000000000000000000000000000000000000000000815260040161127390612ac2565b60405180910390fd5b805f8360405161128c9190612336565b9081526020016040518091039020600101826040516112ab9190612336565b90815260200160405180910390205f0190816112c7919061267e565b505f826040516112d79190612336565b908152602001604051809103902060020181908060018154018082558091505060019003905f5260205f20015f909190919091509081611317919061267e565b507f1b7b1e28707de74f7341a515f3ff17eb4e655096a97799c97650d730464c98198282604051611349929190612ae0565b60405180910390a15050565b5f80846040516113659190612336565b90815260200160405180910390205f01805461138090612379565b9050116113c2576040517f08c379a00000000000000000000000000000000000000000000000000000000081526004016113b9906123f3565b60405180910390fd5b5f80846040516113d29190612336565b9081526020016040518091039020600101836040516113f19190612336565b90815260200160405180910390205f01805461140c90612379565b90501161144e576040517f08c379a00000000000000000000000000000000000000000000000000000000081526004016114459061245b565b60405180910390fd5b5f8360405161145d9190612336565b90815260200160405180910390206001018260405161147c9190612336565b90815260200160405180910390206001018054905081106114d2576040517f08c379a00000000000000000000000000000000000000000000000000000000081526004016114c9906128df565b60405180910390fd5b3373ffffffffffffffffffffffffffffffffffffffff165f846040516114f89190612336565b9081526020016040518091039020600101836040516115179190612336565b9081526020016040518091039020600101828154811061153a576115396128fd565b5b905f5260205f2090600202016001015f9054906101000a900473ffffffffffffffffffffffffffffffffffffffff1673ffffffffffffffffffffffffffffffffffffffff16146115bf576040517f08c379a00000000000000000000000000000000000000000000000000000000081526004016115b690612b85565b60405180910390fd5b5f836040516115ce9190612336565b9081526020016040518091039020600101826040516115ed9190612336565b908152602001604051809103902060010160015f8560405161160f9190612336565b90815260200160405180910390206001018460405161162e9190612336565b90815260200160405180910390206001018054905061164d9190612bd0565b8154811061165e5761165d6128fd565b5b905f5260205f2090600202015f846040516116799190612336565b9081526020016040518091039020600101836040516116989190612336565b908152602001604051809103902060010182815481106116bb576116ba6128fd565b5b905f5260205f2090600202015f8201815f0190816116d99190612c18565b50600182015f9054906101000a900473ffffffffffffffffffffffffffffffffffffffff16816001015f6101000a81548173ffffffffffffffffffffffffffffffffffffffff021916908373ffffffffffffffffffffffffffffffffffffffff1602179055509050505f836040516117519190612336565b9081526020016040518091039020600101826040516117709190612336565b908152602001604051809103902060010180548061179157611790612cfd565b5b600190038181905f5260205f2090600202015f8082015f6117b29190611b47565b600182015f6101000a81549073ffffffffffffffffffffffffffffffffffffffff0219169055505090557ffd8ae2377c2cd63406bcc24e2f562176bd4b1c303f5037ed954fadf273518e9283838360405161180f93929190612d2a565b60405180910390a1505050565b60605f808360405161182e9190612336565b90815260200160405180910390205f01805461184990612379565b90501161188b576040517f08c379a0000000000000000000000000000000000000000000000000000000008152600401611882906123f3565b60405180910390fd5b5f8260405161189a9190612336565b9081526020016040518091039020600201805480602002602001604051908101604052809291908181526020015f905b82821015611972578382905f5260205f200180546118e790612379565b80601f016020809104026020016040519081016040528092919081815260200182805461191390612379565b801561195e5780601f106119355761010080835404028352916020019161195e565b820191905f5260205f20905b81548152906001019060200180831161194157829003601f168201915b5050505050815260200190600101906118ca565b505050509050919050565b5f808360405161198d9190612336565b90815260200160405180910390205f0180546119a890612379565b9050116119ea576040517f08c379a00000000000000000000000000000000000000000000000000000000081526004016119e1906123f3565b60405180910390fd5b5f80836040516119fa9190612336565b908152602001604051809103902060010182604051611a199190612336565b90815260200160405180910390205f018054611a3490612379565b905011611a76576040517f08c379a0000000000000000000000000000000000000000000000000000000008152600401611a6d9061245b565b60405180910390fd5b60015f83604051611a879190612336565b908152602001604051809103902060010182604051611aa69190612336565b90815260200160405180910390206002015f3373ffffffffffffffffffffffffffffffffffffffff1673ffffffffffffffffffffffffffffffffffffffff1681526020019081526020015f205f6101000a81548160ff0219169083151502179055507f7d7fd966dcc9c53a041e53276ebb93ebb02a516221f2091ea771ca78d2da1f5b828233604051611b3b93929190612d6d565b60405180910390a15050565b508054611b5390612379565b5f825580601f10611b645750611b81565b601f0160209004905f5260205f2090810190611b809190611b84565b5b50565b5b80821115611b9b575f815f905550600101611b85565b5090565b5f604051905090565b5f80fd5b5f80fd5b5f80fd5b5f80fd5b5f601f19601f8301169050919050565b7f4e487b71000000000000000000000000000000000000000000000000000000005f52604160045260245ffd5b611bfe82611bb8565b810181811067ffffffffffffffff82111715611c1d57611c1c611bc8565b5b80604052505050565b5f611c2f611b9f565b9050611c3b8282611bf5565b919050565b5f67ffffffffffffffff821115611c5a57611c59611bc8565b5b611c6382611bb8565b9050602081019050919050565b828183375f83830152505050565b5f611c90611c8b84611c40565b611c26565b905082815260208101848484011115611cac57611cab611bb4565b5b611cb7848285611c70565b509392505050565b5f82601f830112611cd357611cd2611bb0565b5b8135611ce3848260208601611c7e565b91505092915050565b5f8060408385031215611d0257611d01611ba8565b5b5f83013567ffffffffffffffff811115611d1f57611d1e611bac565b5b611d2b85828601611cbf565b925050602083013567ffffffffffffffff811115611d4c57611d4b611bac565b5b611d5885828601611cbf565b9150509250929050565b5f819050919050565b611d7481611d62565b82525050565b5f602082019050611d8d5f830184611d6b565b92915050565b5f81519050919050565b5f82825260208201905092915050565b5f819050602082019050919050565b5f81519050919050565b5f82825260208201905092915050565b8281835e5f83830152505050565b5f611dee82611dbc565b611df88185611dc6565b9350611e08818560208601611dd6565b611e1181611bb8565b840191505092915050565b5f73ffffffffffffffffffffffffffffffffffffffff82169050919050565b5f611e4582611e1c565b9050919050565b611e5581611e3b565b82525050565b5f604083015f8301518482035f860152611e758282611de4565b9150506020830151611e8a6020860182611e4c565b508091505092915050565b5f611ea08383611e5b565b905092915050565b5f602082019050919050565b5f611ebe82611d93565b611ec88185611d9d565b935083602082028501611eda85611dad565b805f5b85811015611f155784840389528151611ef68582611e95565b9450611f0183611ea8565b925060208a01995050600181019050611edd565b50829750879550505050505092915050565b5f6020820190508181035f830152611f3f8184611eb4565b905092915050565b5f805f60608486031215611f5e57611f5d611ba8565b5b5f84013567ffffffffffffffff811115611f7b57611f7a611bac565b5b611f8786828701611cbf565b935050602084013567ffffffffffffffff811115611fa857611fa7611bac565b5b611fb486828701611cbf565b925050604084013567ffffffffffffffff811115611fd557611fd4611bac565b5b611fe186828701611cbf565b9150509250925092565b5f6020828403121561200057611fff611ba8565b5b5f82013567ffffffffffffffff81111561201d5761201c611bac565b5b61202984828501611cbf565b91505092915050565b5f81519050919050565b5f82825260208201905092915050565b5f819050602082019050919050565b5f6120668383611de4565b905092915050565b5f602082019050919050565b5f61208482612032565b61208e818561203c565b9350836020820285016120a08561204c565b805f5b858110156120db57848403895281516120bc858261205b565b94506120c78361206e565b925060208a019950506001810190506120a3565b50829750879550505050505092915050565b5f6020820190508181035f830152612105818461207a565b905092915050565b61211681611d62565b8114612120575f80fd5b50565b5f813590506121318161210d565b92915050565b5f805f6060848603121561214e5761214d611ba8565b5b5f84013567ffffffffffffffff81111561216b5761216a611bac565b5b61217786828701611cbf565b935050602084013567ffffffffffffffff81111561219857612197611bac565b5b6121a486828701611cbf565b92505060406121b586828701612123565b9150509250925092565b5f82825260208201905092915050565b5f6121d982611dbc565b6121e381856121bf565b93506121f3818560208601611dd6565b6121fc81611bb8565b840191505092915050565b61221081611e3b565b82525050565b5f6040820190508181035f83015261222e81856121cf565b905061223d6020830184612207565b9392505050565b5f805f806080858703121561225c5761225b611ba8565b5b5f85013567ffffffffffffffff81111561227957612278611bac565b5b61228587828801611cbf565b945050602085013567ffffffffffffffff8111156122a6576122a5611bac565b5b6122b287828801611cbf565b93505060406122c387828801612123565b925050606085013567ffffffffffffffff8111156122e4576122e3611bac565b5b6122f087828801611cbf565b91505092959194509250565b5f81905092915050565b5f61231082611dbc565b61231a81856122fc565b935061232a818560208601611dd6565b80840191505092915050565b5f6123418284612306565b915081905092915050565b7f4e487b71000000000000000000000000000000000000000000000000000000005f52602260045260245ffd5b5f600282049050600182168061239057607f821691505b6020821081036123a3576123a261234c565b5b50919050565b7f436f6d6d756e69747920646f6573206e6f742065786973742e000000000000005f82015250565b5f6123dd6019836121bf565b91506123e8826123a9565b602082019050919050565b5f6020820190508181035f83015261240a816123d1565b9050919050565b7f526f6f6d20646f6573206e6f742065786973742e0000000000000000000000005f82015250565b5f6124456014836121bf565b915061245082612411565b602082019050919050565b5f6020820190508181035f83015261247281612439565b9050919050565b7f596f75206d757374206a6f696e2074686520726f6f6d2066697273742e0000005f82015250565b5f6124ad601d836121bf565b91506124b882612479565b602082019050919050565b5f6020820190508181035f8301526124da816124a1565b9050919050565b5f819050815f5260205f209050919050565b5f6020601f8301049050919050565b5f82821b905092915050565b5f6008830261253d7fffffffffffffffffffffffffffffffffffffffffffffffffffffffffffffffff82612502565b6125478683612502565b95508019841693508086168417925050509392505050565b5f819050919050565b5f61258261257d61257884611d62565b61255f565b611d62565b9050919050565b5f819050919050565b61259b83612568565b6125af6125a782612589565b84845461250e565b825550505050565b5f90565b6125c36125b7565b6125ce818484612592565b505050565b5b818110156125f1576125e65f826125bb565b6001810190506125d4565b5050565b601f82111561263657612607816124e1565b612610846124f3565b8101602085101561261f578190505b61263361262b856124f3565b8301826125d3565b50505b505050565b5f82821c905092915050565b5f6126565f198460080261263b565b1980831691505092915050565b5f61266e8383612647565b9150826002028217905092915050565b61268782611dbc565b67ffffffffffffffff8111156126a05761269f611bc8565b5b6126aa8254612379565b6126b58282856125f5565b5f60209050601f8311600181146126e6575f84156126d4578287015190505b6126de8582612663565b865550612745565b601f1984166126f4866124e1565b5f5b8281101561271b578489015182556001820191506020850194506020810190506126f6565b868310156127385784890151612734601f891682612647565b8355505b6001600288020188555050505b505050505050565b5f6080820190508181035f83015261276581876121cf565b9050818103602083015261277981866121cf565b9050818103604083015261278d81856121cf565b905061279c6060830184612207565b95945050505050565b7f436f6d6d756e697479206e616d652063616e6e6f7420626520656d7074792e005f82015250565b5f6127d9601f836121bf565b91506127e4826127a5565b602082019050919050565b5f6020820190508181035f830152612806816127cd565b9050919050565b7f436f6d6d756e69747920616c7265616479206578697374732e000000000000005f82015250565b5f6128416019836121bf565b915061284c8261280d565b602082019050919050565b5f6020820190508181035f83015261286e81612835565b9050919050565b5f6020820190508181035f83015261288d81846121cf565b905092915050565b7f496e646578206f7574206f6620626f756e64732e0000000000000000000000005f82015250565b5f6128c96014836121bf565b91506128d482612895565b602082019050919050565b5f6020820190508181035f8301526128f6816128bd565b9050919050565b7f4e487b71000000000000000000000000000000000000000000000000000000005f52603260045260245ffd5b7f4f6e6c792074686520617574686f722063616e2065646974207468697320706f5f8201527f73742e0000000000000000000000000000000000000000000000000000000000602082015250565b5f6129846023836121bf565b915061298f8261292a565b604082019050919050565b5f6020820190508181035f8301526129b181612978565b9050919050565b5f6080820190508181035f8301526129d081876121cf565b905081810360208301526129e481866121cf565b90506129f36040830185611d6b565b8181036060830152612a0581846121cf565b905095945050505050565b7f526f6f6d206e616d652063616e6e6f7420626520656d7074792e0000000000005f82015250565b5f612a44601a836121bf565b9150612a4f82612a10565b602082019050919050565b5f6020820190508181035f830152612a7181612a38565b9050919050565b7f526f6f6d20616c7265616479206578697374732e0000000000000000000000005f82015250565b5f612aac6014836121bf565b9150612ab782612a78565b602082019050919050565b5f6020820190508181035f830152612ad981612aa0565b9050919050565b5f6040820190508181035f830152612af881856121cf565b90508181036020830152612b0c81846121cf565b90509392505050565b7f4f6e6c792074686520617574686f722063616e2064656c6574652074686973205f8201527f706f73742e000000000000000000000000000000000000000000000000000000602082015250565b5f612b6f6025836121bf565b9150612b7a82612b15565b604082019050919050565b5f6020820190508181035f830152612b9c81612b63565b9050919050565b7f4e487b71000000000000000000000000000000000000000000000000000000005f52601160045260245ffd5b5f612bda82611d62565b9150612be583611d62565b9250828203905081811115612bfd57612bfc612ba3565b5b92915050565b5f81549050612c1181612379565b9050919050565b818103612c26575050612cfb565b612c2f82612c03565b67ffffffffffffffff811115612c4857612c47611bc8565b5b612c528254612379565b612c5d8282856125f5565b5f601f831160018114612c8a575f8415612c78578287015490505b612c828582612663565b865550612cf4565b601f198416612c98876124e1565b9650612ca3866124e1565b5f5b82811015612cca57848901548255600182019150600185019450602081019050612ca5565b86831015612ce75784890154612ce3601f891682612647565b8355505b6001600288020188555050505b5050505050505b565b7f4e487b71000000000000000000000000000000000000000000000000000000005f52603160045260245ffd5b5f6060820190508181035f830152612d4281866121cf565b90508181036020830152612d5681856121cf565b9050612d656040830184611d6b565b949350505050565b5f6060820190508181035f830152612d8581866121cf565b90508181036020830152612d9981856121cf565b9050612da86040830184612207565b94935050505056fea2646970667358221220248b7f4a93909464b79c55a76d140206d71d4e68e6a46ec5276db4e56c3887b464736f6c634300081a0033",
			"opcodes": "PUSH1 0x80 PUSH1 0x40 MSTORE CALLVALUE DUP1 ISZERO PUSH1 0xE JUMPI PUSH0 DUP1 REVERT JUMPDEST POP PUSH2 0x2DE6 DUP1 PUSH2 0x1C PUSH0 CODECOPY PUSH0 RETURN INVALID PUSH1 0x80 PUSH1 0x40 MSTORE CALLVALUE DUP1 ISZERO PUSH2 0xF JUMPI PUSH0 DUP1 REVERT JUMPDEST POP PUSH1 0x4 CALLDATASIZE LT PUSH2 0xA6 JUMPI PUSH0 CALLDATALOAD PUSH1 0xE0 SHR DUP1 PUSH4 0x62A0B4FD GT PUSH2 0x6F JUMPI DUP1 PUSH4 0x62A0B4FD EQ PUSH2 0x160 JUMPI DUP1 PUSH4 0x64E87A66 EQ PUSH2 0x191 JUMPI DUP1 PUSH4 0xAF769690 EQ PUSH2 0x1AD JUMPI DUP1 PUSH4 0xE98980B0 EQ PUSH2 0x1C9 JUMPI DUP1 PUSH4 0xFA750843 EQ PUSH2 0x1E5 JUMPI DUP1 PUSH4 0xFCFCFD01 EQ PUSH2 0x215 JUMPI PUSH2 0xA6 JUMP JUMPDEST DUP1 PUSH3 0xC310BB EQ PUSH2 0xAA JUMPI DUP1 PUSH4 0x196C0A1D EQ PUSH2 0xDA JUMPI DUP1 PUSH4 0x3275D065 EQ PUSH2 0x10A JUMPI DUP1 PUSH4 0x43792CB4 EQ PUSH2 0x126 JUMPI DUP1 PUSH4 0x49CC5136 EQ PUSH2 0x142 JUMPI JUMPDEST PUSH0 DUP1 REVERT JUMPDEST PUSH2 0xC4 PUSH1 0x4 DUP1 CALLDATASIZE SUB DUP2 ADD SWAP1 PUSH2 0xBF SWAP2 SWAP1 PUSH2 0x1CEC JUMP JUMPDEST PUSH2 0x231 JUMP JUMPDEST PUSH1 0x40 MLOAD PUSH2 0xD1 SWAP2 SWAP1 PUSH2 0x1D7A JUMP JUMPDEST PUSH1 0x40 MLOAD DUP1 SWAP2 SUB SWAP1 RETURN JUMPDEST PUSH2 0xF4 PUSH1 0x4 DUP1 CALLDATASIZE SUB DUP2 ADD SWAP1 PUSH2 0xEF SWAP2 SWAP1 PUSH2 0x1CEC JUMP JUMPDEST PUSH2 0x376 JUMP JUMPDEST PUSH1 0x40 MLOAD PUSH2 0x101 SWAP2 SWAP1 PUSH2 0x1F27 JUMP JUMPDEST PUSH1 0x40 MLOAD DUP1 SWAP2 SUB SWAP1 RETURN JUMPDEST PUSH2 0x124 PUSH1 0x4 DUP1 CALLDATASIZE SUB DUP2 ADD SWAP1 PUSH2 0x11F SWAP2 SWAP1 PUSH2 0x1F47 JUMP JUMPDEST PUSH2 0x5EF JUMP JUMPDEST STOP JUMPDEST PUSH2 0x140 PUSH1 0x4 DUP1 CALLDATASIZE SUB DUP2 ADD SWAP1 PUSH2 0x13B SWAP2 SWAP1 PUSH2 0x1FEB JUMP JUMPDEST PUSH2 0x8E1 JUMP JUMPDEST STOP JUMPDEST PUSH2 0x14A PUSH2 0xA2A JUMP JUMPDEST PUSH1 0x40 MLOAD PUSH2 0x157 SWAP2 SWAP1 PUSH2 0x20ED JUMP JUMPDEST PUSH1 0x40 MLOAD DUP1 SWAP2 SUB SWAP1 RETURN JUMPDEST PUSH2 0x17A PUSH1 0x4 DUP1 CALLDATASIZE SUB DUP2 ADD SWAP1 PUSH2 0x175 SWAP2 SWAP1 PUSH2 0x2137 JUMP JUMPDEST PUSH2 0xAFE JUMP JUMPDEST PUSH1 0x40 MLOAD PUSH2 0x188 SWAP3 SWAP2 SWAP1 PUSH2 0x2216 JUMP JUMPDEST PUSH1 0x40 MLOAD DUP1 SWAP2 SUB SWAP1 RETURN JUMPDEST PUSH2 0x1AB PUSH1 0x4 DUP1 CALLDATASIZE SUB DUP2 ADD SWAP1 PUSH2 0x1A6 SWAP2 SWAP1 PUSH2 0x2244 JUMP JUMPDEST PUSH2 0xDE3 JUMP JUMPDEST STOP JUMPDEST PUSH2 0x1C7 PUSH1 0x4 DUP1 CALLDATASIZE SUB DUP2 ADD SWAP1 PUSH2 0x1C2 SWAP2 SWAP1 PUSH2 0x1CEC JUMP JUMPDEST PUSH2 0x10FD JUMP JUMPDEST STOP JUMPDEST PUSH2 0x1E3 PUSH1 0x4 DUP1 CALLDATASIZE SUB DUP2 ADD SWAP1 PUSH2 0x1DE SWAP2 SWAP1 PUSH2 0x2137 JUMP JUMPDEST PUSH2 0x1355 JUMP JUMPDEST STOP JUMPDEST PUSH2 0x1FF PUSH1 0x4 DUP1 CALLDATASIZE SUB DUP2 ADD SWAP1 PUSH2 0x1FA SWAP2 SWAP1 PUSH2 0x1FEB JUMP JUMPDEST PUSH2 0x181C JUMP JUMPDEST PUSH1 0x40 MLOAD PUSH2 0x20C SWAP2 SWAP1 PUSH2 0x20ED JUMP JUMPDEST PUSH1 0x40 MLOAD DUP1 SWAP2 SUB SWAP1 RETURN JUMPDEST PUSH2 0x22F PUSH1 0x4 DUP1 CALLDATASIZE SUB DUP2 ADD SWAP1 PUSH2 0x22A SWAP2 SWAP1 PUSH2 0x1CEC JUMP JUMPDEST PUSH2 0x197D JUMP JUMPDEST STOP JUMPDEST PUSH0 DUP1 PUSH0 DUP5 PUSH1 0x40 MLOAD PUSH2 0x242 SWAP2 SWAP1 PUSH2 0x2336 JUMP JUMPDEST SWAP1 DUP2 MSTORE PUSH1 0x20 ADD PUSH1 0x40 MLOAD DUP1 SWAP2 SUB SWAP1 KECCAK256 PUSH0 ADD DUP1 SLOAD PUSH2 0x25D SWAP1 PUSH2 0x2379 JUMP JUMPDEST SWAP1 POP GT PUSH2 0x29F JUMPI PUSH1 0x40 MLOAD PUSH32 0x8C379A000000000000000000000000000000000000000000000000000000000 DUP2 MSTORE PUSH1 0x4 ADD PUSH2 0x296 SWAP1 PUSH2 0x23F3 JUMP JUMPDEST PUSH1 0x40 MLOAD DUP1 SWAP2 SUB SWAP1 REVERT JUMPDEST PUSH0 DUP1 DUP5 PUSH1 0x40 MLOAD PUSH2 0x2AF SWAP2 SWAP1 PUSH2 0x2336 JUMP JUMPDEST SWAP1 DUP2 MSTORE PUSH1 0x20 ADD PUSH1 0x40 MLOAD DUP1 SWAP2 SUB SWAP1 KECCAK256 PUSH1 0x1 ADD DUP4 PUSH1 0x40 MLOAD PUSH2 0x2CE SWAP2 SWAP1 PUSH2 0x2336 JUMP JUMPDEST SWAP1 DUP2 MSTORE PUSH1 0x20 ADD PUSH1 0x40 MLOAD DUP1 SWAP2 SUB SWAP1 KECCAK256 PUSH0 ADD DUP1 SLOAD PUSH2 0x2E9 SWAP1 PUSH2 0x2379 JUMP JUMPDEST SWAP1 POP GT PUSH2 0x32B JUMPI PUSH1 0x40 MLOAD PUSH32 0x8C379A000000000000000000000000000000000000000000000000000000000 DUP2 MSTORE PUSH1 0x4 ADD PUSH2 0x322 SWAP1 PUSH2 0x245B JUMP JUMPDEST PUSH1 0x40 MLOAD DUP1 SWAP2 SUB SWAP1 REVERT JUMPDEST PUSH0 DUP4 PUSH1 0x40 MLOAD PUSH2 0x33A SWAP2 SWAP1 PUSH2 0x2336 JUMP JUMPDEST SWAP1 DUP2 MSTORE PUSH1 0x20 ADD PUSH1 0x40 MLOAD DUP1 SWAP2 SUB SWAP1 KECCAK256 PUSH1 0x1 ADD DUP3 PUSH1 0x40 MLOAD PUSH2 0x359 SWAP2 SWAP1 PUSH2 0x2336 JUMP JUMPDEST SWAP1 DUP2 MSTORE PUSH1 0x20 ADD PUSH1 0x40 MLOAD DUP1 SWAP2 SUB SWAP1 KECCAK256 PUSH1 0x1 ADD DUP1 SLOAD SWAP1 POP SWAP1 POP SWAP3 SWAP2 POP POP JUMP JUMPDEST PUSH1 0x60 PUSH0 DUP1 DUP5 PUSH1 0x40 MLOAD PUSH2 0x388 SWAP2 SWAP1 PUSH2 0x2336 JUMP JUMPDEST SWAP1 DUP2 MSTORE PUSH1 0x20 ADD PUSH1 0x40 MLOAD DUP1 SWAP2 SUB SWAP1 KECCAK256 PUSH0 ADD DUP1 SLOAD PUSH2 0x3A3 SWAP1 PUSH2 0x2379 JUMP JUMPDEST SWAP1 POP GT PUSH2 0x3E5 JUMPI PUSH1 0x40 MLOAD PUSH32 0x8C379A000000000000000000000000000000000000000000000000000000000 DUP2 MSTORE PUSH1 0x4 ADD PUSH2 0x3DC SWAP1 PUSH2 0x23F3 JUMP JUMPDEST PUSH1 0x40 MLOAD DUP1 SWAP2 SUB SWAP1 REVERT JUMPDEST PUSH0 DUP1 DUP5 PUSH1 0x40 MLOAD PUSH2 0x3F5 SWAP2 SWAP1 PUSH2 0x2336 JUMP JUMPDEST SWAP1 DUP2 MSTORE PUSH1 0x20 ADD PUSH1 0x40 MLOAD DUP1 SWAP2 SUB SWAP1 KECCAK256 PUSH1 0x1 ADD DUP4 PUSH1 0x40 MLOAD PUSH2 0x414 SWAP2 SWAP1 PUSH2 0x2336 JUMP JUMPDEST SWAP1 DUP2 MSTORE PUSH1 0x20 ADD PUSH1 0x40 MLOAD DUP1 SWAP2 SUB SWAP1 KECCAK256 PUSH0 ADD DUP1 SLOAD PUSH2 0x42F SWAP1 PUSH2 0x2379 JUMP JUMPDEST SWAP1 POP GT PUSH2 0x471 JUMPI PUSH1 0x40 MLOAD PUSH32 0x8C379A000000000000000000000000000000000000000000000000000000000 DUP2 MSTORE PUSH1 0x4 ADD PUSH2 0x468 SWAP1 PUSH2 0x245B JUMP JUMPDEST PUSH1 0x40 MLOAD DUP1 SWAP2 SUB SWAP1 REVERT JUMPDEST PUSH0 DUP4 PUSH1 0x40 MLOAD PUSH2 0x480 SWAP2 SWAP1 PUSH2 0x2336 JUMP JUMPDEST SWAP1 DUP2 MSTORE PUSH1 0x20 ADD PUSH1 0x40 MLOAD DUP1 SWAP2 SUB SWAP1 KECCAK256 PUSH1 0x1 ADD DUP3 PUSH1 0x40 MLOAD PUSH2 0x49F SWAP2 SWAP1 PUSH2 0x2336 JUMP JUMPDEST SWAP1 DUP2 MSTORE PUSH1 0x20 ADD PUSH1 0x40 MLOAD DUP1 SWAP2 SUB SWAP1 KECCAK256 PUSH1 0x1 ADD DUP1 SLOAD DUP1 PUSH1 0x20 MUL PUSH1 0x20 ADD PUSH1 0x40 MLOAD SWAP1 DUP2 ADD PUSH1 0x40 MSTORE DUP1 SWAP3 SWAP2 SWAP1 DUP2 DUP2 MSTORE PUSH1 0x20 ADD PUSH0 SWAP1 JUMPDEST DUP3 DUP3 LT ISZERO PUSH2 0x5E3 JUMPI DUP4 DUP3 SWAP1 PUSH0 MSTORE PUSH1 0x20 PUSH0 KECCAK256 SWAP1 PUSH1 0x2 MUL ADD PUSH1 0x40 MLOAD DUP1 PUSH1 0x40 ADD PUSH1 0x40 MSTORE SWAP1 DUP2 PUSH0 DUP3 ADD DUP1 SLOAD PUSH2 0x4FF SWAP1 PUSH2 0x2379 JUMP JUMPDEST DUP1 PUSH1 0x1F ADD PUSH1 0x20 DUP1 SWAP2 DIV MUL PUSH1 0x20 ADD PUSH1 0x40 MLOAD SWAP1 DUP2 ADD PUSH1 0x40 MSTORE DUP1 SWAP3 SWAP2 SWAP1 DUP2 DUP2 MSTORE PUSH1 0x20 ADD DUP3 DUP1 SLOAD PUSH2 0x52B SWAP1 PUSH2 0x2379 JUMP JUMPDEST DUP1 ISZERO PUSH2 0x576 JUMPI DUP1 PUSH1 0x1F LT PUSH2 0x54D JUMPI PUSH2 0x100 DUP1 DUP4 SLOAD DIV MUL DUP4 MSTORE SWAP2 PUSH1 0x20 ADD SWAP2 PUSH2 0x576 JUMP JUMPDEST DUP3 ADD SWAP2 SWAP1 PUSH0 MSTORE PUSH1 0x20 PUSH0 KECCAK256 SWAP1 JUMPDEST DUP2 SLOAD DUP2 MSTORE SWAP1 PUSH1 0x1 ADD SWAP1 PUSH1 0x20 ADD DUP1 DUP4 GT PUSH2 0x559 JUMPI DUP3 SWAP1 SUB PUSH1 0x1F AND DUP3 ADD SWAP2 JUMPDEST POP POP POP POP POP DUP2 MSTORE PUSH1 0x20 ADD PUSH1 0x1 DUP3 ADD PUSH0 SWAP1 SLOAD SWAP1 PUSH2 0x100 EXP SWAP1 DIV PUSH20 0xFFFFFFFFFFFFFFFFFFFFFFFFFFFFFFFFFFFFFFFF AND PUSH20 0xFFFFFFFFFFFFFFFFFFFFFFFFFFFFFFFFFFFFFFFF AND PUSH20 0xFFFFFFFFFFFFFFFFFFFFFFFFFFFFFFFFFFFFFFFF AND DUP2 MSTORE POP POP DUP2 MSTORE PUSH1 0x20 ADD SWAP1 PUSH1 0x1 ADD SWAP1 PUSH2 0x4CF JUMP JUMPDEST POP POP POP POP SWAP1 POP SWAP3 SWAP2 POP POP JUMP JUMPDEST PUSH0 DUP1 DUP5 PUSH1 0x40 MLOAD PUSH2 0x5FF SWAP2 SWAP1 PUSH2 0x2336 JUMP JUMPDEST SWAP1 DUP2 MSTORE PUSH1 0x20 ADD PUSH1 0x40 MLOAD DUP1 SWAP2 SUB SWAP1 KECCAK256 PUSH0 ADD DUP1 SLOAD PUSH2 0x61A SWAP1 PUSH2 0x2379 JUMP JUMPDEST SWAP1 POP GT PUSH2 0x65C JUMPI PUSH1 0x40 MLOAD PUSH32 0x8C379A000000000000000000000000000000000000000000000000000000000 DUP2 MSTORE PUSH1 0x4 ADD PUSH2 0x653 SWAP1 PUSH2 0x23F3 JUMP JUMPDEST PUSH1 0x40 MLOAD DUP1 SWAP2 SUB SWAP1 REVERT JUMPDEST PUSH0 DUP1 DUP5 PUSH1 0x40 MLOAD PUSH2 0x66C SWAP2 SWAP1 PUSH2 0x2336 JUMP JUMPDEST SWAP1 DUP2 MSTORE PUSH1 0x20 ADD PUSH1 0x40 MLOAD DUP1 SWAP2 SUB SWAP1 KECCAK256 PUSH1 0x1 ADD DUP4 PUSH1 0x40 MLOAD PUSH2 0x68B SWAP2 SWAP1 PUSH2 0x2336 JUMP JUMPDEST SWAP1 DUP2 MSTORE PUSH1 0x20 ADD PUSH1 0x40 MLOAD DUP1 SWAP2 SUB SWAP1 KECCAK256 PUSH0 ADD DUP1 SLOAD PUSH2 0x6A6 SWAP1 PUSH2 0x2379 JUMP JUMPDEST SWAP1 POP GT PUSH2 0x6E8 JUMPI PUSH1 0x40 MLOAD PUSH32 0x8C379A000000000000000000000000000000000000000000000000000000000 DUP2 MSTORE PUSH1 0x4 ADD PUSH2 0x6DF SWAP1 PUSH2 0x245B JUMP JUMPDEST PUSH1 0x40 MLOAD DUP1 SWAP2 SUB SWAP1 REVERT JUMPDEST PUSH0 DUP4 PUSH1 0x40 MLOAD PUSH2 0x6F7 SWAP2 SWAP1 PUSH2 0x2336 JUMP JUMPDEST SWAP1 DUP2 MSTORE PUSH1 0x20 ADD PUSH1 0x40 MLOAD DUP1 SWAP2 SUB SWAP1 KECCAK256 PUSH1 0x1 ADD DUP3 PUSH1 0x40 MLOAD PUSH2 0x716 SWAP2 SWAP1 PUSH2 0x2336 JUMP JUMPDEST SWAP1 DUP2 MSTORE PUSH1 0x20 ADD PUSH1 0x40 MLOAD DUP1 SWAP2 SUB SWAP1 KECCAK256 PUSH1 0x2 ADD PUSH0 CALLER PUSH20 0xFFFFFFFFFFFFFFFFFFFFFFFFFFFFFFFFFFFFFFFF AND PUSH20 0xFFFFFFFFFFFFFFFFFFFFFFFFFFFFFFFFFFFFFFFF AND DUP2 MSTORE PUSH1 0x20 ADD SWAP1 DUP2 MSTORE PUSH1 0x20 ADD PUSH0 KECCAK256 PUSH0 SWAP1 SLOAD SWAP1 PUSH2 0x100 EXP SWAP1 DIV PUSH1 0xFF AND PUSH2 0x7AE JUMPI PUSH1 0x40 MLOAD PUSH32 0x8C379A000000000000000000000000000000000000000000000000000000000 DUP2 MSTORE PUSH1 0x4 ADD PUSH2 0x7A5 SWAP1 PUSH2 0x24C3 JUMP JUMPDEST PUSH1 0x40 MLOAD DUP1 SWAP2 SUB SWAP1 REVERT JUMPDEST PUSH0 PUSH1 0x40 MLOAD DUP1 PUSH1 0x40 ADD PUSH1 0x40 MSTORE DUP1 DUP4 DUP2 MSTORE PUSH1 0x20 ADD CALLER PUSH20 0xFFFFFFFFFFFFFFFFFFFFFFFFFFFFFFFFFFFFFFFF AND DUP2 MSTORE POP SWAP1 POP PUSH0 DUP5 PUSH1 0x40 MLOAD PUSH2 0x7EB SWAP2 SWAP1 PUSH2 0x2336 JUMP JUMPDEST SWAP1 DUP2 MSTORE PUSH1 0x20 ADD PUSH1 0x40 MLOAD DUP1 SWAP2 SUB SWAP1 KECCAK256 PUSH1 0x1 ADD DUP4 PUSH1 0x40 MLOAD PUSH2 0x80A SWAP2 SWAP1 PUSH2 0x2336 JUMP JUMPDEST SWAP1 DUP2 MSTORE PUSH1 0x20 ADD PUSH1 0x40 MLOAD DUP1 SWAP2 SUB SWAP1 KECCAK256 PUSH1 0x1 ADD DUP2 SWAP1 DUP1 PUSH1 0x1 DUP2 SLOAD ADD DUP1 DUP3 SSTORE DUP1 SWAP2 POP POP PUSH1 0x1 SWAP1 SUB SWAP1 PUSH0 MSTORE PUSH1 0x20 PUSH0 KECCAK256 SWAP1 PUSH1 0x2 MUL ADD PUSH0 SWAP1 SWAP2 SWAP1 SWAP2 SWAP1 SWAP2 POP PUSH0 DUP3 ADD MLOAD DUP2 PUSH0 ADD SWAP1 DUP2 PUSH2 0x855 SWAP2 SWAP1 PUSH2 0x267E JUMP JUMPDEST POP PUSH1 0x20 DUP3 ADD MLOAD DUP2 PUSH1 0x1 ADD PUSH0 PUSH2 0x100 EXP DUP2 SLOAD DUP2 PUSH20 0xFFFFFFFFFFFFFFFFFFFFFFFFFFFFFFFFFFFFFFFF MUL NOT AND SWAP1 DUP4 PUSH20 0xFFFFFFFFFFFFFFFFFFFFFFFFFFFFFFFFFFFFFFFF AND MUL OR SWAP1 SSTORE POP POP POP PUSH32 0x78E20B417D561AF6368683D8A739D539DD337E7DE40491A379C946D5ECD325B6 DUP5 DUP5 DUP5 CALLER PUSH1 0x40 MLOAD PUSH2 0x8D3 SWAP5 SWAP4 SWAP3 SWAP2 SWAP1 PUSH2 0x274D JUMP JUMPDEST PUSH1 0x40 MLOAD DUP1 SWAP2 SUB SWAP1 LOG1 POP POP POP POP JUMP JUMPDEST PUSH0 DUP2 MLOAD GT PUSH2 0x924 JUMPI PUSH1 0x40 MLOAD PUSH32 0x8C379A000000000000000000000000000000000000000000000000000000000 DUP2 MSTORE PUSH1 0x4 ADD PUSH2 0x91B SWAP1 PUSH2 0x27EF JUMP JUMPDEST PUSH1 0x40 MLOAD DUP1 SWAP2 SUB SWAP1 REVERT JUMPDEST PUSH0 DUP1 DUP3 PUSH1 0x40 MLOAD PUSH2 0x934 SWAP2 SWAP1 PUSH2 0x2336 JUMP JUMPDEST SWAP1 DUP2 MSTORE PUSH1 0x20 ADD PUSH1 0x40 MLOAD DUP1 SWAP2 SUB SWAP1 KECCAK256 PUSH0 ADD DUP1 SLOAD PUSH2 0x94F SWAP1 PUSH2 0x2379 JUMP JUMPDEST SWAP1 POP EQ PUSH2 0x991 JUMPI PUSH1 0x40 MLOAD PUSH32 0x8C379A000000000000000000000000000000000000000000000000000000000 DUP2 MSTORE PUSH1 0x4 ADD PUSH2 0x988 SWAP1 PUSH2 0x2857 JUMP JUMPDEST PUSH1 0x40 MLOAD DUP1 SWAP2 SUB SWAP1 REVERT JUMPDEST DUP1 PUSH0 DUP3 PUSH1 0x40 MLOAD PUSH2 0x9A1 SWAP2 SWAP1 PUSH2 0x2336 JUMP JUMPDEST SWAP1 DUP2 MSTORE PUSH1 0x20 ADD PUSH1 0x40 MLOAD DUP1 SWAP2 SUB SWAP1 KECCAK256 PUSH0 ADD SWAP1 DUP2 PUSH2 0x9BD SWAP2 SWAP1 PUSH2 0x267E JUMP JUMPDEST POP PUSH1 0x1 DUP2 SWAP1 DUP1 PUSH1 0x1 DUP2 SLOAD ADD DUP1 DUP3 SSTORE DUP1 SWAP2 POP POP PUSH1 0x1 SWAP1 SUB SWAP1 PUSH0 MSTORE PUSH1 0x20 PUSH0 KECCAK256 ADD PUSH0 SWAP1 SWAP2 SWAP1 SWAP2 SWAP1 SWAP2 POP SWAP1 DUP2 PUSH2 0x9EF SWAP2 SWAP1 PUSH2 0x267E JUMP JUMPDEST POP PUSH32 0xBE0D9CAC8B45FE60E0E3DDE6D4667524AF915E9A08ABD13AA354C9B82F0756DB DUP2 PUSH1 0x40 MLOAD PUSH2 0xA1F SWAP2 SWAP1 PUSH2 0x2875 JUMP JUMPDEST PUSH1 0x40 MLOAD DUP1 SWAP2 SUB SWAP1 LOG1 POP JUMP JUMPDEST PUSH1 0x60 PUSH1 0x1 DUP1 SLOAD DUP1 PUSH1 0x20 MUL PUSH1 0x20 ADD PUSH1 0x40 MLOAD SWAP1 DUP2 ADD PUSH1 0x40 MSTORE DUP1 SWAP3 SWAP2 SWAP1 DUP2 DUP2 MSTORE PUSH1 0x20 ADD PUSH0 SWAP1 JUMPDEST DUP3 DUP3 LT ISZERO PUSH2 0xAF5 JUMPI DUP4 DUP3 SWAP1 PUSH0 MSTORE PUSH1 0x20 PUSH0 KECCAK256 ADD DUP1 SLOAD PUSH2 0xA6A SWAP1 PUSH2 0x2379 JUMP JUMPDEST DUP1 PUSH1 0x1F ADD PUSH1 0x20 DUP1 SWAP2 DIV MUL PUSH1 0x20 ADD PUSH1 0x40 MLOAD SWAP1 DUP2 ADD PUSH1 0x40 MSTORE DUP1 SWAP3 SWAP2 SWAP1 DUP2 DUP2 MSTORE PUSH1 0x20 ADD DUP3 DUP1 SLOAD PUSH2 0xA96 SWAP1 PUSH2 0x2379 JUMP JUMPDEST DUP1 ISZERO PUSH2 0xAE1 JUMPI DUP1 PUSH1 0x1F LT PUSH2 0xAB8 JUMPI PUSH2 0x100 DUP1 DUP4 SLOAD DIV MUL DUP4 MSTORE SWAP2 PUSH1 0x20 ADD SWAP2 PUSH2 0xAE1 JUMP JUMPDEST DUP3 ADD SWAP2 SWAP1 PUSH0 MSTORE PUSH1 0x20 PUSH0 KECCAK256 SWAP1 JUMPDEST DUP2 SLOAD DUP2 MSTORE SWAP1 PUSH1 0x1 ADD SWAP1 PUSH1 0x20 ADD DUP1 DUP4 GT PUSH2 0xAC4 JUMPI DUP3 SWAP1 SUB PUSH1 0x1F AND DUP3 ADD SWAP2 JUMPDEST POP POP POP POP POP DUP2 MSTORE PUSH1 0x20 ADD SWAP1 PUSH1 0x1 ADD SWAP1 PUSH2 0xA4D JUMP JUMPDEST POP POP POP POP SWAP1 POP SWAP1 JUMP JUMPDEST PUSH1 0x60 PUSH0 DUP1 PUSH0 DUP7 PUSH1 0x40 MLOAD PUSH2 0xB11 SWAP2 SWAP1 PUSH2 0x2336 JUMP JUMPDEST SWAP1 DUP2 MSTORE PUSH1 0x20 ADD PUSH1 0x40 MLOAD DUP1 SWAP2 SUB SWAP1 KECCAK256 PUSH0 ADD DUP1 SLOAD PUSH2 0xB2C SWAP1 PUSH2 0x2379 JUMP JUMPDEST SWAP1 POP GT PUSH2 0xB6E JUMPI PUSH1 0x40 MLOAD PUSH32 0x8C379A000000000000000000000000000000000000000000000000000000000 DUP2 MSTORE PUSH1 0x4 ADD PUSH2 0xB65 SWAP1 PUSH2 0x23F3 JUMP JUMPDEST PUSH1 0x40 MLOAD DUP1 SWAP2 SUB SWAP1 REVERT JUMPDEST PUSH0 DUP1 DUP7 PUSH1 0x40 MLOAD PUSH2 0xB7E SWAP2 SWAP1 PUSH2 0x2336 JUMP JUMPDEST SWAP1 DUP2 MSTORE PUSH1 0x20 ADD PUSH1 0x40 MLOAD DUP1 SWAP2 SUB SWAP1 KECCAK256 PUSH1 0x1 ADD DUP6 PUSH1 0x40 MLOAD PUSH2 0xB9D SWAP2 SWAP1 PUSH2 0x2336 JUMP JUMPDEST SWAP1 DUP2 MSTORE PUSH1 0x20 ADD PUSH1 0x40 MLOAD DUP1 SWAP2 SUB SWAP1 KECCAK256 PUSH0 ADD DUP1 SLOAD PUSH2 0xBB8 SWAP1 PUSH2 0x2379 JUMP JUMPDEST SWAP1 POP GT PUSH2 0xBFA JUMPI PUSH1 0x40 MLOAD PUSH32 0x8C379A000000000000000000000000000000000000000000000000000000000 DUP2 MSTORE PUSH1 0x4 ADD PUSH2 0xBF1 SWAP1 PUSH2 0x245B JUMP JUMPDEST PUSH1 0x40 MLOAD DUP1 SWAP2 SUB SWAP1 REVERT JUMPDEST PUSH0 DUP6 PUSH1 0x40 MLOAD PUSH2 0xC09 SWAP2 SWAP1 PUSH2 0x2336 JUMP JUMPDEST SWAP1 DUP2 MSTORE PUSH1 0x20 ADD PUSH1 0x40 MLOAD DUP1 SWAP2 SUB SWAP1 KECCAK256 PUSH1 0x1 ADD DUP5 PUSH1 0x40 MLOAD PUSH2 0xC28 SWAP2 SWAP1 PUSH2 0x2336 JUMP JUMPDEST SWAP1 DUP2 MSTORE PUSH1 0x20 ADD PUSH1 0x40 MLOAD DUP1 SWAP2 SUB SWAP1 KECCAK256 PUSH1 0x1 ADD DUP1 SLOAD SWAP1 POP DUP4 LT PUSH2 0xC7E JUMPI PUSH1 0x40 MLOAD PUSH32 0x8C379A000000000000000000000000000000000000000000000000000000000 DUP2 MSTORE PUSH1 0x4 ADD PUSH2 0xC75 SWAP1 PUSH2 0x28DF JUMP JUMPDEST PUSH1 0x40 MLOAD DUP1 SWAP2 SUB SWAP1 REVERT JUMPDEST PUSH0 DUP1 DUP7 PUSH1 0x40 MLOAD PUSH2 0xC8E SWAP2 SWAP1 PUSH2 0x2336 JUMP JUMPDEST SWAP1 DUP2 MSTORE PUSH1 0x20 ADD PUSH1 0x40 MLOAD DUP1 SWAP2 SUB SWAP1 KECCAK256 PUSH1 0x1 ADD DUP6 PUSH1 0x40 MLOAD PUSH2 0xCAD SWAP2 SWAP1 PUSH2 0x2336 JUMP JUMPDEST SWAP1 DUP2 MSTORE PUSH1 0x20 ADD PUSH1 0x40 MLOAD DUP1 SWAP2 SUB SWAP1 KECCAK256 PUSH1 0x1 ADD DUP5 DUP2 SLOAD DUP2 LT PUSH2 0xCD0 JUMPI PUSH2 0xCCF PUSH2 0x28FD JUMP JUMPDEST JUMPDEST SWAP1 PUSH0 MSTORE PUSH1 0x20 PUSH0 KECCAK256 SWAP1 PUSH1 0x2 MUL ADD PUSH1 0x40 MLOAD DUP1 PUSH1 0x40 ADD PUSH1 0x40 MSTORE SWAP1 DUP2 PUSH0 DUP3 ADD DUP1 SLOAD PUSH2 0xCF6 SWAP1 PUSH2 0x2379 JUMP JUMPDEST DUP1 PUSH1 0x1F ADD PUSH1 0x20 DUP1 SWAP2 DIV MUL PUSH1 0x20 ADD PUSH1 0x40 MLOAD SWAP1 DUP2 ADD PUSH1 0x40 MSTORE DUP1 SWAP3 SWAP2 SWAP1 DUP2 DUP2 MSTORE PUSH1 0x20 ADD DUP3 DUP1 SLOAD PUSH2 0xD22 SWAP1 PUSH2 0x2379 JUMP JUMPDEST DUP1 ISZERO PUSH2 0xD6D JUMPI DUP1 PUSH1 0x1F LT PUSH2 0xD44 JUMPI PUSH2 0x100 DUP1 DUP4 SLOAD DIV MUL DUP4 MSTORE SWAP2 PUSH1 0x20 ADD SWAP2 PUSH2 0xD6D JUMP JUMPDEST DUP3 ADD SWAP2 SWAP1 PUSH0 MSTORE PUSH1 0x20 PUSH0 KECCAK256 SWAP1 JUMPDEST DUP2 SLOAD DUP2 MSTORE SWAP1 PUSH1 0x1 ADD SWAP1 PUSH1 0x20 ADD DUP1 DUP4 GT PUSH2 0xD50 JUMPI DUP3 SWAP1 SUB PUSH1 0x1F AND DUP3 ADD SWAP2 JUMPDEST POP POP POP POP POP DUP2 MSTORE PUSH1 0x20 ADD PUSH1 0x1 DUP3 ADD PUSH0 SWAP1 SLOAD SWAP1 PUSH2 0x100 EXP SWAP1 DIV PUSH20 0xFFFFFFFFFFFFFFFFFFFFFFFFFFFFFFFFFFFFFFFF AND PUSH20 0xFFFFFFFFFFFFFFFFFFFFFFFFFFFFFFFFFFFFFFFF AND PUSH20 0xFFFFFFFFFFFFFFFFFFFFFFFFFFFFFFFFFFFFFFFF AND DUP2 MSTORE POP POP SWAP1 POP DUP1 PUSH0 ADD MLOAD DUP2 PUSH1 0x20 ADD MLOAD SWAP3 POP SWAP3 POP POP SWAP4 POP SWAP4 SWAP2 POP POP JUMP JUMPDEST PUSH0 DUP1 DUP6 PUSH1 0x40 MLOAD PUSH2 0xDF3 SWAP2 SWAP1 PUSH2 0x2336 JUMP JUMPDEST SWAP1 DUP2 MSTORE PUSH1 0x20 ADD PUSH1 0x40 MLOAD DUP1 SWAP2 SUB SWAP1 KECCAK256 PUSH0 ADD DUP1 SLOAD PUSH2 0xE0E SWAP1 PUSH2 0x2379 JUMP JUMPDEST SWAP1 POP GT PUSH2 0xE50 JUMPI PUSH1 0x40 MLOAD PUSH32 0x8C379A000000000000000000000000000000000000000000000000000000000 DUP2 MSTORE PUSH1 0x4 ADD PUSH2 0xE47 SWAP1 PUSH2 0x23F3 JUMP JUMPDEST PUSH1 0x40 MLOAD DUP1 SWAP2 SUB SWAP1 REVERT JUMPDEST PUSH0 DUP1 DUP6 PUSH1 0x40 MLOAD PUSH2 0xE60 SWAP2 SWAP1 PUSH2 0x2336 JUMP JUMPDEST SWAP1 DUP2 MSTORE PUSH1 0x20 ADD PUSH1 0x40 MLOAD DUP1 SWAP2 SUB SWAP1 KECCAK256 PUSH1 0x1 ADD DUP5 PUSH1 0x40 MLOAD PUSH2 0xE7F SWAP2 SWAP1 PUSH2 0x2336 JUMP JUMPDEST SWAP1 DUP2 MSTORE PUSH1 0x20 ADD PUSH1 0x40 MLOAD DUP1 SWAP2 SUB SWAP1 KECCAK256 PUSH0 ADD DUP1 SLOAD PUSH2 0xE9A SWAP1 PUSH2 0x2379 JUMP JUMPDEST SWAP1 POP GT PUSH2 0xEDC JUMPI PUSH1 0x40 MLOAD PUSH32 0x8C379A000000000000000000000000000000000000000000000000000000000 DUP2 MSTORE PUSH1 0x4 ADD PUSH2 0xED3 SWAP1 PUSH2 0x245B JUMP JUMPDEST PUSH1 0x40 MLOAD DUP1 SWAP2 SUB SWAP1 REVERT JUMPDEST PUSH0 DUP5 PUSH1 0x40 MLOAD PUSH2 0xEEB SWAP2 SWAP1 PUSH2 0x2336 JUMP JUMPDEST SWAP1 DUP2 MSTORE PUSH1 0x20 ADD PUSH1 0x40 MLOAD DUP1 SWAP2 SUB SWAP1 KECCAK256 PUSH1 0x1 ADD DUP4 PUSH1 0x40 MLOAD PUSH2 0xF0A SWAP2 SWAP1 PUSH2 0x2336 JUMP JUMPDEST SWAP1 DUP2 MSTORE PUSH1 0x20 ADD PUSH1 0x40 MLOAD DUP1 SWAP2 SUB SWAP1 KECCAK256 PUSH1 0x1 ADD DUP1 SLOAD SWAP1 POP DUP3 LT PUSH2 0xF60 JUMPI PUSH1 0x40 MLOAD PUSH32 0x8C379A000000000000000000000000000000000000000000000000000000000 DUP2 MSTORE PUSH1 0x4 ADD PUSH2 0xF57 SWAP1 PUSH2 0x28DF JUMP JUMPDEST PUSH1 0x40 MLOAD DUP1 SWAP2 SUB SWAP1 REVERT JUMPDEST CALLER PUSH20 0xFFFFFFFFFFFFFFFFFFFFFFFFFFFFFFFFFFFFFFFF AND PUSH0 DUP6 PUSH1 0x40 MLOAD PUSH2 0xF86 SWAP2 SWAP1 PUSH2 0x2336 JUMP JUMPDEST SWAP1 DUP2 MSTORE PUSH1 0x20 ADD PUSH1 0x40 MLOAD DUP1 SWAP2 SUB SWAP1 KECCAK256 PUSH1 0x1 ADD DUP5 PUSH1 0x40 MLOAD PUSH2 0xFA5 SWAP2 SWAP1 PUSH2 0x2336 JUMP JUMPDEST SWAP1 DUP2 MSTORE PUSH1 0x20 ADD PUSH1 0x40 MLOAD DUP1 SWAP2 SUB SWAP1 KECCAK256 PUSH1 0x1 ADD DUP4 DUP2 SLOAD DUP2 LT PUSH2 0xFC8 JUMPI PUSH2 0xFC7 PUSH2 0x28FD JUMP JUMPDEST JUMPDEST SWAP1 PUSH0 MSTORE PUSH1 0x20 PUSH0 KECCAK256 SWAP1 PUSH1 0x2 MUL ADD PUSH1 0x1 ADD PUSH0 SWAP1 SLOAD SWAP1 PUSH2 0x100 EXP SWAP1 DIV PUSH20 0xFFFFFFFFFFFFFFFFFFFFFFFFFFFFFFFFFFFFFFFF AND PUSH20 0xFFFFFFFFFFFFFFFFFFFFFFFFFFFFFFFFFFFFFFFF AND EQ PUSH2 0x104D JUMPI PUSH1 0x40 MLOAD PUSH32 0x8C379A000000000000000000000000000000000000000000000000000000000 DUP2 MSTORE PUSH1 0x4 ADD PUSH2 0x1044 SWAP1 PUSH2 0x299A JUMP JUMPDEST PUSH1 0x40 MLOAD DUP1 SWAP2 SUB SWAP1 REVERT JUMPDEST DUP1 PUSH0 DUP6 PUSH1 0x40 MLOAD PUSH2 0x105D SWAP2 SWAP1 PUSH2 0x2336 JUMP JUMPDEST SWAP1 DUP2 MSTORE PUSH1 0x20 ADD PUSH1 0x40 MLOAD DUP1 SWAP2 SUB SWAP1 KECCAK256 PUSH1 0x1 ADD DUP5 PUSH1 0x40 MLOAD PUSH2 0x107C SWAP2 SWAP1 PUSH2 0x2336 JUMP JUMPDEST SWAP1 DUP2 MSTORE PUSH1 0x20 ADD PUSH1 0x40 MLOAD DUP1 SWAP2 SUB SWAP1 KECCAK256 PUSH1 0x1 ADD DUP4 DUP2 SLOAD DUP2 LT PUSH2 0x109F JUMPI PUSH2 0x109E PUSH2 0x28FD JUMP JUMPDEST JUMPDEST SWAP1 PUSH0 MSTORE PUSH1 0x20 PUSH0 KECCAK256 SWAP1 PUSH1 0x2 MUL ADD PUSH0 ADD SWAP1 DUP2 PUSH2 0x10B9 SWAP2 SWAP1 PUSH2 0x267E JUMP JUMPDEST POP PUSH32 0xF63152EFC0CFBAEA746D4DD82195EA1801D98FB559507311293C46D7FEE6D702 DUP5 DUP5 DUP5 DUP5 PUSH1 0x40 MLOAD PUSH2 0x10EF SWAP5 SWAP4 SWAP3 SWAP2 SWAP1 PUSH2 0x29B8 JUMP JUMPDEST PUSH1 0x40 MLOAD DUP1 SWAP2 SUB SWAP1 LOG1 POP POP POP POP JUMP JUMPDEST PUSH0 DUP3 MLOAD GT PUSH2 0x1140 JUMPI PUSH1 0x40 MLOAD PUSH32 0x8C379A000000000000000000000000000000000000000000000000000000000 DUP2 MSTORE PUSH1 0x4 ADD PUSH2 0x1137 SWAP1 PUSH2 0x27EF JUMP JUMPDEST PUSH1 0x40 MLOAD DUP1 SWAP2 SUB SWAP1 REVERT JUMPDEST PUSH0 DUP2 MLOAD GT PUSH2 0x1183 JUMPI PUSH1 0x40 MLOAD PUSH32 0x8C379A000000000000000000000000000000000000000000000000000000000 DUP2 MSTORE PUSH1 0x4 ADD PUSH2 0x117A SWAP1 PUSH2 0x2A5A JUMP JUMPDEST PUSH1 0x40 MLOAD DUP1 SWAP2 SUB SWAP1 REVERT JUMPDEST PUSH0 DUP1 DUP4 PUSH1 0x40 MLOAD PUSH2 0x1193 SWAP2 SWAP1 PUSH2 0x2336 JUMP JUMPDEST SWAP1 DUP2 MSTORE PUSH1 0x20 ADD PUSH1 0x40 MLOAD DUP1 SWAP2 SUB SWAP1 KECCAK256 PUSH0 ADD DUP1 SLOAD PUSH2 0x11AE SWAP1 PUSH2 0x2379 JUMP JUMPDEST SWAP1 POP GT PUSH2 0x11F0 JUMPI PUSH1 0x40 MLOAD PUSH32 0x8C379A000000000000000000000000000000000000000000000000000000000 DUP2 MSTORE PUSH1 0x4 ADD PUSH2 0x11E7 SWAP1 PUSH2 0x23F3 JUMP JUMPDEST PUSH1 0x40 MLOAD DUP1 SWAP2 SUB SWAP1 REVERT JUMPDEST PUSH0 DUP1 DUP4 PUSH1 0x40 MLOAD PUSH2 0x1200 SWAP2 SWAP1 PUSH2 0x2336 JUMP JUMPDEST SWAP1 DUP2 MSTORE PUSH1 0x20 ADD PUSH1 0x40 MLOAD DUP1 SWAP2 SUB SWAP1 KECCAK256 PUSH1 0x1 ADD DUP3 PUSH1 0x40 MLOAD PUSH2 0x121F SWAP2 SWAP1 PUSH2 0x2336 JUMP JUMPDEST SWAP1 DUP2 MSTORE PUSH1 0x20 ADD PUSH1 0x40 MLOAD DUP1 SWAP2 SUB SWAP1 KECCAK256 PUSH0 ADD DUP1 SLOAD PUSH2 0x123A SWAP1 PUSH2 0x2379 JUMP JUMPDEST SWAP1 POP EQ PUSH2 0x127C JUMPI PUSH1 0x40 MLOAD PUSH32 0x8C379A000000000000000000000000000000000000000000000000000000000 DUP2 MSTORE PUSH1 0x4 ADD PUSH2 0x1273 SWAP1 PUSH2 0x2AC2 JUMP JUMPDEST PUSH1 0x40 MLOAD DUP1 SWAP2 SUB SWAP1 REVERT JUMPDEST DUP1 PUSH0 DUP4 PUSH1 0x40 MLOAD PUSH2 0x128C SWAP2 SWAP1 PUSH2 0x2336 JUMP JUMPDEST SWAP1 DUP2 MSTORE PUSH1 0x20 ADD PUSH1 0x40 MLOAD DUP1 SWAP2 SUB SWAP1 KECCAK256 PUSH1 0x1 ADD DUP3 PUSH1 0x40 MLOAD PUSH2 0x12AB SWAP2 SWAP1 PUSH2 0x2336 JUMP JUMPDEST SWAP1 DUP2 MSTORE PUSH1 0x20 ADD PUSH1 0x40 MLOAD DUP1 SWAP2 SUB SWAP1 KECCAK256 PUSH0 ADD SWAP1 DUP2 PUSH2 0x12C7 SWAP2 SWAP1 PUSH2 0x267E JUMP JUMPDEST POP PUSH0 DUP3 PUSH1 0x40 MLOAD PUSH2 0x12D7 SWAP2 SWAP1 PUSH2 0x2336 JUMP JUMPDEST SWAP1 DUP2 MSTORE PUSH1 0x20 ADD PUSH1 0x40 MLOAD DUP1 SWAP2 SUB SWAP1 KECCAK256 PUSH1 0x2 ADD DUP2 SWAP1 DUP1 PUSH1 0x1 DUP2 SLOAD ADD DUP1 DUP3 SSTORE DUP1 SWAP2 POP POP PUSH1 0x1 SWAP1 SUB SWAP1 PUSH0 MSTORE PUSH1 0x20 PUSH0 KECCAK256 ADD PUSH0 SWAP1 SWAP2 SWAP1 SWAP2 SWAP1 SWAP2 POP SWAP1 DUP2 PUSH2 0x1317 SWAP2 SWAP1 PUSH2 0x267E JUMP JUMPDEST POP PUSH32 0x1B7B1E28707DE74F7341A515F3FF17EB4E655096A97799C97650D730464C9819 DUP3 DUP3 PUSH1 0x40 MLOAD PUSH2 0x1349 SWAP3 SWAP2 SWAP1 PUSH2 0x2AE0 JUMP JUMPDEST PUSH1 0x40 MLOAD DUP1 SWAP2 SUB SWAP1 LOG1 POP POP JUMP JUMPDEST PUSH0 DUP1 DUP5 PUSH1 0x40 MLOAD PUSH2 0x1365 SWAP2 SWAP1 PUSH2 0x2336 JUMP JUMPDEST SWAP1 DUP2 MSTORE PUSH1 0x20 ADD PUSH1 0x40 MLOAD DUP1 SWAP2 SUB SWAP1 KECCAK256 PUSH0 ADD DUP1 SLOAD PUSH2 0x1380 SWAP1 PUSH2 0x2379 JUMP JUMPDEST SWAP1 POP GT PUSH2 0x13C2 JUMPI PUSH1 0x40 MLOAD PUSH32 0x8C379A000000000000000000000000000000000000000000000000000000000 DUP2 MSTORE PUSH1 0x4 ADD PUSH2 0x13B9 SWAP1 PUSH2 0x23F3 JUMP JUMPDEST PUSH1 0x40 MLOAD DUP1 SWAP2 SUB SWAP1 REVERT JUMPDEST PUSH0 DUP1 DUP5 PUSH1 0x40 MLOAD PUSH2 0x13D2 SWAP2 SWAP1 PUSH2 0x2336 JUMP JUMPDEST SWAP1 DUP2 MSTORE PUSH1 0x20 ADD PUSH1 0x40 MLOAD DUP1 SWAP2 SUB SWAP1 KECCAK256 PUSH1 0x1 ADD DUP4 PUSH1 0x40 MLOAD PUSH2 0x13F1 SWAP2 SWAP1 PUSH2 0x2336 JUMP JUMPDEST SWAP1 DUP2 MSTORE PUSH1 0x20 ADD PUSH1 0x40 MLOAD DUP1 SWAP2 SUB SWAP1 KECCAK256 PUSH0 ADD DUP1 SLOAD PUSH2 0x140C SWAP1 PUSH2 0x2379 JUMP JUMPDEST SWAP1 POP GT PUSH2 0x144E JUMPI PUSH1 0x40 MLOAD PUSH32 0x8C379A000000000000000000000000000000000000000000000000000000000 DUP2 MSTORE PUSH1 0x4 ADD PUSH2 0x1445 SWAP1 PUSH2 0x245B JUMP JUMPDEST PUSH1 0x40 MLOAD DUP1 SWAP2 SUB SWAP1 REVERT JUMPDEST PUSH0 DUP4 PUSH1 0x40 MLOAD PUSH2 0x145D SWAP2 SWAP1 PUSH2 0x2336 JUMP JUMPDEST SWAP1 DUP2 MSTORE PUSH1 0x20 ADD PUSH1 0x40 MLOAD DUP1 SWAP2 SUB SWAP1 KECCAK256 PUSH1 0x1 ADD DUP3 PUSH1 0x40 MLOAD PUSH2 0x147C SWAP2 SWAP1 PUSH2 0x2336 JUMP JUMPDEST SWAP1 DUP2 MSTORE PUSH1 0x20 ADD PUSH1 0x40 MLOAD DUP1 SWAP2 SUB SWAP1 KECCAK256 PUSH1 0x1 ADD DUP1 SLOAD SWAP1 POP DUP2 LT PUSH2 0x14D2 JUMPI PUSH1 0x40 MLOAD PUSH32 0x8C379A000000000000000000000000000000000000000000000000000000000 DUP2 MSTORE PUSH1 0x4 ADD PUSH2 0x14C9 SWAP1 PUSH2 0x28DF JUMP JUMPDEST PUSH1 0x40 MLOAD DUP1 SWAP2 SUB SWAP1 REVERT JUMPDEST CALLER PUSH20 0xFFFFFFFFFFFFFFFFFFFFFFFFFFFFFFFFFFFFFFFF AND PUSH0 DUP5 PUSH1 0x40 MLOAD PUSH2 0x14F8 SWAP2 SWAP1 PUSH2 0x2336 JUMP JUMPDEST SWAP1 DUP2 MSTORE PUSH1 0x20 ADD PUSH1 0x40 MLOAD DUP1 SWAP2 SUB SWAP1 KECCAK256 PUSH1 0x1 ADD DUP4 PUSH1 0x40 MLOAD PUSH2 0x1517 SWAP2 SWAP1 PUSH2 0x2336 JUMP JUMPDEST SWAP1 DUP2 MSTORE PUSH1 0x20 ADD PUSH1 0x40 MLOAD DUP1 SWAP2 SUB SWAP1 KECCAK256 PUSH1 0x1 ADD DUP3 DUP2 SLOAD DUP2 LT PUSH2 0x153A JUMPI PUSH2 0x1539 PUSH2 0x28FD JUMP JUMPDEST JUMPDEST SWAP1 PUSH0 MSTORE PUSH1 0x20 PUSH0 KECCAK256 SWAP1 PUSH1 0x2 MUL ADD PUSH1 0x1 ADD PUSH0 SWAP1 SLOAD SWAP1 PUSH2 0x100 EXP SWAP1 DIV PUSH20 0xFFFFFFFFFFFFFFFFFFFFFFFFFFFFFFFFFFFFFFFF AND PUSH20 0xFFFFFFFFFFFFFFFFFFFFFFFFFFFFFFFFFFFFFFFF AND EQ PUSH2 0x15BF JUMPI PUSH1 0x40 MLOAD PUSH32 0x8C379A000000000000000000000000000000000000000000000000000000000 DUP2 MSTORE PUSH1 0x4 ADD PUSH2 0x15B6 SWAP1 PUSH2 0x2B85 JUMP JUMPDEST PUSH1 0x40 MLOAD DUP1 SWAP2 SUB SWAP1 REVERT JUMPDEST PUSH0 DUP4 PUSH1 0x40 MLOAD PUSH2 0x15CE SWAP2 SWAP1 PUSH2 0x2336 JUMP JUMPDEST SWAP1 DUP2 MSTORE PUSH1 0x20 ADD PUSH1 0x40 MLOAD DUP1 SWAP2 SUB SWAP1 KECCAK256 PUSH1 0x1 ADD DUP3 PUSH1 0x40 MLOAD PUSH2 0x15ED SWAP2 SWAP1 PUSH2 0x2336 JUMP JUMPDEST SWAP1 DUP2 MSTORE PUSH1 0x20 ADD PUSH1 0x40 MLOAD DUP1 SWAP2 SUB SWAP1 KECCAK256 PUSH1 0x1 ADD PUSH1 0x1 PUSH0 DUP6 PUSH1 0x40 MLOAD PUSH2 0x160F SWAP2 SWAP1 PUSH2 0x2336 JUMP JUMPDEST SWAP1 DUP2 MSTORE PUSH1 0x20 ADD PUSH1 0x40 MLOAD DUP1 SWAP2 SUB SWAP1 KECCAK256 PUSH1 0x1 ADD DUP5 PUSH1 0x40 MLOAD PUSH2 0x162E SWAP2 SWAP1 PUSH2 0x2336 JUMP JUMPDEST SWAP1 DUP2 MSTORE PUSH1 0x20 ADD PUSH1 0x40 MLOAD DUP1 SWAP2 SUB SWAP1 KECCAK256 PUSH1 0x1 ADD DUP1 SLOAD SWAP1 POP PUSH2 0x164D SWAP2 SWAP1 PUSH2 0x2BD0 JUMP JUMPDEST DUP2 SLOAD DUP2 LT PUSH2 0x165E JUMPI PUSH2 0x165D PUSH2 0x28FD JUMP JUMPDEST JUMPDEST SWAP1 PUSH0 MSTORE PUSH1 0x20 PUSH0 KECCAK256 SWAP1 PUSH1 0x2 MUL ADD PUSH0 DUP5 PUSH1 0x40 MLOAD PUSH2 0x1679 SWAP2 SWAP1 PUSH2 0x2336 JUMP JUMPDEST SWAP1 DUP2 MSTORE PUSH1 0x20 ADD PUSH1 0x40 MLOAD DUP1 SWAP2 SUB SWAP1 KECCAK256 PUSH1 0x1 ADD DUP4 PUSH1 0x40 MLOAD PUSH2 0x1698 SWAP2 SWAP1 PUSH2 0x2336 JUMP JUMPDEST SWAP1 DUP2 MSTORE PUSH1 0x20 ADD PUSH1 0x40 MLOAD DUP1 SWAP2 SUB SWAP1 KECCAK256 PUSH1 0x1 ADD DUP3 DUP2 SLOAD DUP2 LT PUSH2 0x16BB JUMPI PUSH2 0x16BA PUSH2 0x28FD JUMP JUMPDEST JUMPDEST SWAP1 PUSH0 MSTORE PUSH1 0x20 PUSH0 KECCAK256 SWAP1 PUSH1 0x2 MUL ADD PUSH0 DUP3 ADD DUP2 PUSH0 ADD SWAP1 DUP2 PUSH2 0x16D9 SWAP2 SWAP1 PUSH2 0x2C18 JUMP JUMPDEST POP PUSH1 0x1 DUP3 ADD PUSH0 SWAP1 SLOAD SWAP1 PUSH2 0x100 EXP SWAP1 DIV PUSH20 0xFFFFFFFFFFFFFFFFFFFFFFFFFFFFFFFFFFFFFFFF AND DUP2 PUSH1 0x1 ADD PUSH0 PUSH2 0x100 EXP DUP2 SLOAD DUP2 PUSH20 0xFFFFFFFFFFFFFFFFFFFFFFFFFFFFFFFFFFFFFFFF MUL NOT AND SWAP1 DUP4 PUSH20 0xFFFFFFFFFFFFFFFFFFFFFFFFFFFFFFFFFFFFFFFF AND MUL OR SWAP1 SSTORE POP SWAP1 POP POP PUSH0 DUP4 PUSH1 0x40 MLOAD PUSH2 0x1751 SWAP2 SWAP1 PUSH2 0x2336 JUMP JUMPDEST SWAP1 DUP2 MSTORE PUSH1 0x20 ADD PUSH1 0x40 MLOAD DUP1 SWAP2 SUB SWAP1 KECCAK256 PUSH1 0x1 ADD DUP3 PUSH1 0x40 MLOAD PUSH2 0x1770 SWAP2 SWAP1 PUSH2 0x2336 JUMP JUMPDEST SWAP1 DUP2 MSTORE PUSH1 0x20 ADD PUSH1 0x40 MLOAD DUP1 SWAP2 SUB SWAP1 KECCAK256 PUSH1 0x1 ADD DUP1 SLOAD DUP1 PUSH2 0x1791 JUMPI PUSH2 0x1790 PUSH2 0x2CFD JUMP JUMPDEST JUMPDEST PUSH1 0x1 SWAP1 SUB DUP2 DUP2 SWAP1 PUSH0 MSTORE PUSH1 0x20 PUSH0 KECCAK256 SWAP1 PUSH1 0x2 MUL ADD PUSH0 DUP1 DUP3 ADD PUSH0 PUSH2 0x17B2 SWAP2 SWAP1 PUSH2 0x1B47 JUMP JUMPDEST PUSH1 0x1 DUP3 ADD PUSH0 PUSH2 0x100 EXP DUP2 SLOAD SWAP1 PUSH20 0xFFFFFFFFFFFFFFFFFFFFFFFFFFFFFFFFFFFFFFFF MUL NOT AND SWAP1 SSTORE POP POP SWAP1 SSTORE PUSH32 0xFD8AE2377C2CD63406BCC24E2F562176BD4B1C303F5037ED954FADF273518E92 DUP4 DUP4 DUP4 PUSH1 0x40 MLOAD PUSH2 0x180F SWAP4 SWAP3 SWAP2 SWAP1 PUSH2 0x2D2A JUMP JUMPDEST PUSH1 0x40 MLOAD DUP1 SWAP2 SUB SWAP1 LOG1 POP POP POP JUMP JUMPDEST PUSH1 0x60 PUSH0 DUP1 DUP4 PUSH1 0x40 MLOAD PUSH2 0x182E SWAP2 SWAP1 PUSH2 0x2336 JUMP JUMPDEST SWAP1 DUP2 MSTORE PUSH1 0x20 ADD PUSH1 0x40 MLOAD DUP1 SWAP2 SUB SWAP1 KECCAK256 PUSH0 ADD DUP1 SLOAD PUSH2 0x1849 SWAP1 PUSH2 0x2379 JUMP JUMPDEST SWAP1 POP GT PUSH2 0x188B JUMPI PUSH1 0x40 MLOAD PUSH32 0x8C379A000000000000000000000000000000000000000000000000000000000 DUP2 MSTORE PUSH1 0x4 ADD PUSH2 0x1882 SWAP1 PUSH2 0x23F3 JUMP JUMPDEST PUSH1 0x40 MLOAD DUP1 SWAP2 SUB SWAP1 REVERT JUMPDEST PUSH0 DUP3 PUSH1 0x40 MLOAD PUSH2 0x189A SWAP2 SWAP1 PUSH2 0x2336 JUMP JUMPDEST SWAP1 DUP2 MSTORE PUSH1 0x20 ADD PUSH1 0x40 MLOAD DUP1 SWAP2 SUB SWAP1 KECCAK256 PUSH1 0x2 ADD DUP1 SLOAD DUP1 PUSH1 0x20 MUL PUSH1 0x20 ADD PUSH1 0x40 MLOAD SWAP1 DUP2 ADD PUSH1 0x40 MSTORE DUP1 SWAP3 SWAP2 SWAP1 DUP2 DUP2 MSTORE PUSH1 0x20 ADD PUSH0 SWAP1 JUMPDEST DUP3 DUP3 LT ISZERO PUSH2 0x1972 JUMPI DUP4 DUP3 SWAP1 PUSH0 MSTORE PUSH1 0x20 PUSH0 KECCAK256 ADD DUP1 SLOAD PUSH2 0x18E7 SWAP1 PUSH2 0x2379 JUMP JUMPDEST DUP1 PUSH1 0x1F ADD PUSH1 0x20 DUP1 SWAP2 DIV MUL PUSH1 0x20 ADD PUSH1 0x40 MLOAD SWAP1 DUP2 ADD PUSH1 0x40 MSTORE DUP1 SWAP3 SWAP2 SWAP1 DUP2 DUP2 MSTORE PUSH1 0x20 ADD DUP3 DUP1 SLOAD PUSH2 0x1913 SWAP1 PUSH2 0x2379 JUMP JUMPDEST DUP1 ISZERO PUSH2 0x195E JUMPI DUP1 PUSH1 0x1F LT PUSH2 0x1935 JUMPI PUSH2 0x100 DUP1 DUP4 SLOAD DIV MUL DUP4 MSTORE SWAP2 PUSH1 0x20 ADD SWAP2 PUSH2 0x195E JUMP JUMPDEST DUP3 ADD SWAP2 SWAP1 PUSH0 MSTORE PUSH1 0x20 PUSH0 KECCAK256 SWAP1 JUMPDEST DUP2 SLOAD DUP2 MSTORE SWAP1 PUSH1 0x1 ADD SWAP1 PUSH1 0x20 ADD DUP1 DUP4 GT PUSH2 0x1941 JUMPI DUP3 SWAP1 SUB PUSH1 0x1F AND DUP3 ADD SWAP2 JUMPDEST POP POP POP POP POP DUP2 MSTORE PUSH1 0x20 ADD SWAP1 PUSH1 0x1 ADD SWAP1 PUSH2 0x18CA JUMP JUMPDEST POP POP POP POP SWAP1 POP SWAP2 SWAP1 POP JUMP JUMPDEST PUSH0 DUP1 DUP4 PUSH1 0x40 MLOAD PUSH2 0x198D SWAP2 SWAP1 PUSH2 0x2336 JUMP JUMPDEST SWAP1 DUP2 MSTORE PUSH1 0x20 ADD PUSH1 0x40 MLOAD DUP1 SWAP2 SUB SWAP1 KECCAK256 PUSH0 ADD DUP1 SLOAD PUSH2 0x19A8 SWAP1 PUSH2 0x2379 JUMP JUMPDEST SWAP1 POP GT PUSH2 0x19EA JUMPI PUSH1 0x40 MLOAD PUSH32 0x8C379A000000000000000000000000000000000000000000000000000000000 DUP2 MSTORE PUSH1 0x4 ADD PUSH2 0x19E1 SWAP1 PUSH2 0x23F3 JUMP JUMPDEST PUSH1 0x40 MLOAD DUP1 SWAP2 SUB SWAP1 REVERT JUMPDEST PUSH0 DUP1 DUP4 PUSH1 0x40 MLOAD PUSH2 0x19FA SWAP2 SWAP1 PUSH2 0x2336 JUMP JUMPDEST SWAP1 DUP2 MSTORE PUSH1 0x20 ADD PUSH1 0x40 MLOAD DUP1 SWAP2 SUB SWAP1 KECCAK256 PUSH1 0x1 ADD DUP3 PUSH1 0x40 MLOAD PUSH2 0x1A19 SWAP2 SWAP1 PUSH2 0x2336 JUMP JUMPDEST SWAP1 DUP2 MSTORE PUSH1 0x20 ADD PUSH1 0x40 MLOAD DUP1 SWAP2 SUB SWAP1 KECCAK256 PUSH0 ADD DUP1 SLOAD PUSH2 0x1A34 SWAP1 PUSH2 0x2379 JUMP JUMPDEST SWAP1 POP GT PUSH2 0x1A76 JUMPI PUSH1 0x40 MLOAD PUSH32 0x8C379A000000000000000000000000000000000000000000000000000000000 DUP2 MSTORE PUSH1 0x4 ADD PUSH2 0x1A6D SWAP1 PUSH2 0x245B JUMP JUMPDEST PUSH1 0x40 MLOAD DUP1 SWAP2 SUB SWAP1 REVERT JUMPDEST PUSH1 0x1 PUSH0 DUP4 PUSH1 0x40 MLOAD PUSH2 0x1A87 SWAP2 SWAP1 PUSH2 0x2336 JUMP JUMPDEST SWAP1 DUP2 MSTORE PUSH1 0x20 ADD PUSH1 0x40 MLOAD DUP1 SWAP2 SUB SWAP1 KECCAK256 PUSH1 0x1 ADD DUP3 PUSH1 0x40 MLOAD PUSH2 0x1AA6 SWAP2 SWAP1 PUSH2 0x2336 JUMP JUMPDEST SWAP1 DUP2 MSTORE PUSH1 0x20 ADD PUSH1 0x40 MLOAD DUP1 SWAP2 SUB SWAP1 KECCAK256 PUSH1 0x2 ADD PUSH0 CALLER PUSH20 0xFFFFFFFFFFFFFFFFFFFFFFFFFFFFFFFFFFFFFFFF AND PUSH20 0xFFFFFFFFFFFFFFFFFFFFFFFFFFFFFFFFFFFFFFFF AND DUP2 MSTORE PUSH1 0x20 ADD SWAP1 DUP2 MSTORE PUSH1 0x20 ADD PUSH0 KECCAK256 PUSH0 PUSH2 0x100 EXP DUP2 SLOAD DUP2 PUSH1 0xFF MUL NOT AND SWAP1 DUP4 ISZERO ISZERO MUL OR SWAP1 SSTORE POP PUSH32 0x7D7FD966DCC9C53A041E53276EBB93EBB02A516221F2091EA771CA78D2DA1F5B DUP3 DUP3 CALLER PUSH1 0x40 MLOAD PUSH2 0x1B3B SWAP4 SWAP3 SWAP2 SWAP1 PUSH2 0x2D6D JUMP JUMPDEST PUSH1 0x40 MLOAD DUP1 SWAP2 SUB SWAP1 LOG1 POP POP JUMP JUMPDEST POP DUP1 SLOAD PUSH2 0x1B53 SWAP1 PUSH2 0x2379 JUMP JUMPDEST PUSH0 DUP3 SSTORE DUP1 PUSH1 0x1F LT PUSH2 0x1B64 JUMPI POP PUSH2 0x1B81 JUMP JUMPDEST PUSH1 0x1F ADD PUSH1 0x20 SWAP1 DIV SWAP1 PUSH0 MSTORE PUSH1 0x20 PUSH0 KECCAK256 SWAP1 DUP2 ADD SWAP1 PUSH2 0x1B80 SWAP2 SWAP1 PUSH2 0x1B84 JUMP JUMPDEST JUMPDEST POP JUMP JUMPDEST JUMPDEST DUP1 DUP3 GT ISZERO PUSH2 0x1B9B JUMPI PUSH0 DUP2 PUSH0 SWAP1 SSTORE POP PUSH1 0x1 ADD PUSH2 0x1B85 JUMP JUMPDEST POP SWAP1 JUMP JUMPDEST PUSH0 PUSH1 0x40 MLOAD SWAP1 POP SWAP1 JUMP JUMPDEST PUSH0 DUP1 REVERT JUMPDEST PUSH0 DUP1 REVERT JUMPDEST PUSH0 DUP1 REVERT JUMPDEST PUSH0 DUP1 REVERT JUMPDEST PUSH0 PUSH1 0x1F NOT PUSH1 0x1F DUP4 ADD AND SWAP1 POP SWAP2 SWAP1 POP JUMP JUMPDEST PUSH32 0x4E487B7100000000000000000000000000000000000000000000000000000000 PUSH0 MSTORE PUSH1 0x41 PUSH1 0x4 MSTORE PUSH1 0x24 PUSH0 REVERT JUMPDEST PUSH2 0x1BFE DUP3 PUSH2 0x1BB8 JUMP JUMPDEST DUP2 ADD DUP2 DUP2 LT PUSH8 0xFFFFFFFFFFFFFFFF DUP3 GT OR ISZERO PUSH2 0x1C1D JUMPI PUSH2 0x1C1C PUSH2 0x1BC8 JUMP JUMPDEST JUMPDEST DUP1 PUSH1 0x40 MSTORE POP POP POP JUMP JUMPDEST PUSH0 PUSH2 0x1C2F PUSH2 0x1B9F JUMP JUMPDEST SWAP1 POP PUSH2 0x1C3B DUP3 DUP3 PUSH2 0x1BF5 JUMP JUMPDEST SWAP2 SWAP1 POP JUMP JUMPDEST PUSH0 PUSH8 0xFFFFFFFFFFFFFFFF DUP3 GT ISZERO PUSH2 0x1C5A JUMPI PUSH2 0x1C59 PUSH2 0x1BC8 JUMP JUMPDEST JUMPDEST PUSH2 0x1C63 DUP3 PUSH2 0x1BB8 JUMP JUMPDEST SWAP1 POP PUSH1 0x20 DUP2 ADD SWAP1 POP SWAP2 SWAP1 POP JUMP JUMPDEST DUP3 DUP2 DUP4 CALLDATACOPY PUSH0 DUP4 DUP4 ADD MSTORE POP POP POP JUMP JUMPDEST PUSH0 PUSH2 0x1C90 PUSH2 0x1C8B DUP5 PUSH2 0x1C40 JUMP JUMPDEST PUSH2 0x1C26 JUMP JUMPDEST SWAP1 POP DUP3 DUP2 MSTORE PUSH1 0x20 DUP2 ADD DUP5 DUP5 DUP5 ADD GT ISZERO PUSH2 0x1CAC JUMPI PUSH2 0x1CAB PUSH2 0x1BB4 JUMP JUMPDEST JUMPDEST PUSH2 0x1CB7 DUP5 DUP3 DUP6 PUSH2 0x1C70 JUMP JUMPDEST POP SWAP4 SWAP3 POP POP POP JUMP JUMPDEST PUSH0 DUP3 PUSH1 0x1F DUP4 ADD SLT PUSH2 0x1CD3 JUMPI PUSH2 0x1CD2 PUSH2 0x1BB0 JUMP JUMPDEST JUMPDEST DUP2 CALLDATALOAD PUSH2 0x1CE3 DUP5 DUP3 PUSH1 0x20 DUP7 ADD PUSH2 0x1C7E JUMP JUMPDEST SWAP2 POP POP SWAP3 SWAP2 POP POP JUMP JUMPDEST PUSH0 DUP1 PUSH1 0x40 DUP4 DUP6 SUB SLT ISZERO PUSH2 0x1D02 JUMPI PUSH2 0x1D01 PUSH2 0x1BA8 JUMP JUMPDEST JUMPDEST PUSH0 DUP4 ADD CALLDATALOAD PUSH8 0xFFFFFFFFFFFFFFFF DUP2 GT ISZERO PUSH2 0x1D1F JUMPI PUSH2 0x1D1E PUSH2 0x1BAC JUMP JUMPDEST JUMPDEST PUSH2 0x1D2B DUP6 DUP3 DUP7 ADD PUSH2 0x1CBF JUMP JUMPDEST SWAP3 POP POP PUSH1 0x20 DUP4 ADD CALLDATALOAD PUSH8 0xFFFFFFFFFFFFFFFF DUP2 GT ISZERO PUSH2 0x1D4C JUMPI PUSH2 0x1D4B PUSH2 0x1BAC JUMP JUMPDEST JUMPDEST PUSH2 0x1D58 DUP6 DUP3 DUP7 ADD PUSH2 0x1CBF JUMP JUMPDEST SWAP2 POP POP SWAP3 POP SWAP3 SWAP1 POP JUMP JUMPDEST PUSH0 DUP2 SWAP1 POP SWAP2 SWAP1 POP JUMP JUMPDEST PUSH2 0x1D74 DUP2 PUSH2 0x1D62 JUMP JUMPDEST DUP3 MSTORE POP POP JUMP JUMPDEST PUSH0 PUSH1 0x20 DUP3 ADD SWAP1 POP PUSH2 0x1D8D PUSH0 DUP4 ADD DUP5 PUSH2 0x1D6B JUMP JUMPDEST SWAP3 SWAP2 POP POP JUMP JUMPDEST PUSH0 DUP2 MLOAD SWAP1 POP SWAP2 SWAP1 POP JUMP JUMPDEST PUSH0 DUP3 DUP3 MSTORE PUSH1 0x20 DUP3 ADD SWAP1 POP SWAP3 SWAP2 POP POP JUMP JUMPDEST PUSH0 DUP2 SWAP1 POP PUSH1 0x20 DUP3 ADD SWAP1 POP SWAP2 SWAP1 POP JUMP JUMPDEST PUSH0 DUP2 MLOAD SWAP1 POP SWAP2 SWAP1 POP JUMP JUMPDEST PUSH0 DUP3 DUP3 MSTORE PUSH1 0x20 DUP3 ADD SWAP1 POP SWAP3 SWAP2 POP POP JUMP JUMPDEST DUP3 DUP2 DUP4 MCOPY PUSH0 DUP4 DUP4 ADD MSTORE POP POP POP JUMP JUMPDEST PUSH0 PUSH2 0x1DEE DUP3 PUSH2 0x1DBC JUMP JUMPDEST PUSH2 0x1DF8 DUP2 DUP6 PUSH2 0x1DC6 JUMP JUMPDEST SWAP4 POP PUSH2 0x1E08 DUP2 DUP6 PUSH1 0x20 DUP7 ADD PUSH2 0x1DD6 JUMP JUMPDEST PUSH2 0x1E11 DUP2 PUSH2 0x1BB8 JUMP JUMPDEST DUP5 ADD SWAP2 POP POP SWAP3 SWAP2 POP POP JUMP JUMPDEST PUSH0 PUSH20 0xFFFFFFFFFFFFFFFFFFFFFFFFFFFFFFFFFFFFFFFF DUP3 AND SWAP1 POP SWAP2 SWAP1 POP JUMP JUMPDEST PUSH0 PUSH2 0x1E45 DUP3 PUSH2 0x1E1C JUMP JUMPDEST SWAP1 POP SWAP2 SWAP1 POP JUMP JUMPDEST PUSH2 0x1E55 DUP2 PUSH2 0x1E3B JUMP JUMPDEST DUP3 MSTORE POP POP JUMP JUMPDEST PUSH0 PUSH1 0x40 DUP4 ADD PUSH0 DUP4 ADD MLOAD DUP5 DUP3 SUB PUSH0 DUP7 ADD MSTORE PUSH2 0x1E75 DUP3 DUP3 PUSH2 0x1DE4 JUMP JUMPDEST SWAP2 POP POP PUSH1 0x20 DUP4 ADD MLOAD PUSH2 0x1E8A PUSH1 0x20 DUP7 ADD DUP3 PUSH2 0x1E4C JUMP JUMPDEST POP DUP1 SWAP2 POP POP SWAP3 SWAP2 POP POP JUMP JUMPDEST PUSH0 PUSH2 0x1EA0 DUP4 DUP4 PUSH2 0x1E5B JUMP JUMPDEST SWAP1 POP SWAP3 SWAP2 POP POP JUMP JUMPDEST PUSH0 PUSH1 0x20 DUP3 ADD SWAP1 POP SWAP2 SWAP1 POP JUMP JUMPDEST PUSH0 PUSH2 0x1EBE DUP3 PUSH2 0x1D93 JUMP JUMPDEST PUSH2 0x1EC8 DUP2 DUP6 PUSH2 0x1D9D JUMP JUMPDEST SWAP4 POP DUP4 PUSH1 0x20 DUP3 MUL DUP6 ADD PUSH2 0x1EDA DUP6 PUSH2 0x1DAD JUMP JUMPDEST DUP1 PUSH0 JUMPDEST DUP6 DUP2 LT ISZERO PUSH2 0x1F15 JUMPI DUP5 DUP5 SUB DUP10 MSTORE DUP2 MLOAD PUSH2 0x1EF6 DUP6 DUP3 PUSH2 0x1E95 JUMP JUMPDEST SWAP5 POP PUSH2 0x1F01 DUP4 PUSH2 0x1EA8 JUMP JUMPDEST SWAP3 POP PUSH1 0x20 DUP11 ADD SWAP10 POP POP PUSH1 0x1 DUP2 ADD SWAP1 POP PUSH2 0x1EDD JUMP JUMPDEST POP DUP3 SWAP8 POP DUP8 SWAP6 POP POP POP POP POP POP SWAP3 SWAP2 POP POP JUMP JUMPDEST PUSH0 PUSH1 0x20 DUP3 ADD SWAP1 POP DUP2 DUP2 SUB PUSH0 DUP4 ADD MSTORE PUSH2 0x1F3F DUP2 DUP5 PUSH2 0x1EB4 JUMP JUMPDEST SWAP1 POP SWAP3 SWAP2 POP POP JUMP JUMPDEST PUSH0 DUP1 PUSH0 PUSH1 0x60 DUP5 DUP7 SUB SLT ISZERO PUSH2 0x1F5E JUMPI PUSH2 0x1F5D PUSH2 0x1BA8 JUMP JUMPDEST JUMPDEST PUSH0 DUP5 ADD CALLDATALOAD PUSH8 0xFFFFFFFFFFFFFFFF DUP2 GT ISZERO PUSH2 0x1F7B JUMPI PUSH2 0x1F7A PUSH2 0x1BAC JUMP JUMPDEST JUMPDEST PUSH2 0x1F87 DUP7 DUP3 DUP8 ADD PUSH2 0x1CBF JUMP JUMPDEST SWAP4 POP POP PUSH1 0x20 DUP5 ADD CALLDATALOAD PUSH8 0xFFFFFFFFFFFFFFFF DUP2 GT ISZERO PUSH2 0x1FA8 JUMPI PUSH2 0x1FA7 PUSH2 0x1BAC JUMP JUMPDEST JUMPDEST PUSH2 0x1FB4 DUP7 DUP3 DUP8 ADD PUSH2 0x1CBF JUMP JUMPDEST SWAP3 POP POP PUSH1 0x40 DUP5 ADD CALLDATALOAD PUSH8 0xFFFFFFFFFFFFFFFF DUP2 GT ISZERO PUSH2 0x1FD5 JUMPI PUSH2 0x1FD4 PUSH2 0x1BAC JUMP JUMPDEST JUMPDEST PUSH2 0x1FE1 DUP7 DUP3 DUP8 ADD PUSH2 0x1CBF JUMP JUMPDEST SWAP2 POP POP SWAP3 POP SWAP3 POP SWAP3 JUMP JUMPDEST PUSH0 PUSH1 0x20 DUP3 DUP5 SUB SLT ISZERO PUSH2 0x2000 JUMPI PUSH2 0x1FFF PUSH2 0x1BA8 JUMP JUMPDEST JUMPDEST PUSH0 DUP3 ADD CALLDATALOAD PUSH8 0xFFFFFFFFFFFFFFFF DUP2 GT ISZERO PUSH2 0x201D JUMPI PUSH2 0x201C PUSH2 0x1BAC JUMP JUMPDEST JUMPDEST PUSH2 0x2029 DUP5 DUP3 DUP6 ADD PUSH2 0x1CBF JUMP JUMPDEST SWAP2 POP POP SWAP3 SWAP2 POP POP JUMP JUMPDEST PUSH0 DUP2 MLOAD SWAP1 POP SWAP2 SWAP1 POP JUMP JUMPDEST PUSH0 DUP3 DUP3 MSTORE PUSH1 0x20 DUP3 ADD SWAP1 POP SWAP3 SWAP2 POP POP JUMP JUMPDEST PUSH0 DUP2 SWAP1 POP PUSH1 0x20 DUP3 ADD SWAP1 POP SWAP2 SWAP1 POP JUMP JUMPDEST PUSH0 PUSH2 0x2066 DUP4 DUP4 PUSH2 0x1DE4 JUMP JUMPDEST SWAP1 POP SWAP3 SWAP2 POP POP JUMP JUMPDEST PUSH0 PUSH1 0x20 DUP3 ADD SWAP1 POP SWAP2 SWAP1 POP JUMP JUMPDEST PUSH0 PUSH2 0x2084 DUP3 PUSH2 0x2032 JUMP JUMPDEST PUSH2 0x208E DUP2 DUP6 PUSH2 0x203C JUMP JUMPDEST SWAP4 POP DUP4 PUSH1 0x20 DUP3 MUL DUP6 ADD PUSH2 0x20A0 DUP6 PUSH2 0x204C JUMP JUMPDEST DUP1 PUSH0 JUMPDEST DUP6 DUP2 LT ISZERO PUSH2 0x20DB JUMPI DUP5 DUP5 SUB DUP10 MSTORE DUP2 MLOAD PUSH2 0x20BC DUP6 DUP3 PUSH2 0x205B JUMP JUMPDEST SWAP5 POP PUSH2 0x20C7 DUP4 PUSH2 0x206E JUMP JUMPDEST SWAP3 POP PUSH1 0x20 DUP11 ADD SWAP10 POP POP PUSH1 0x1 DUP2 ADD SWAP1 POP PUSH2 0x20A3 JUMP JUMPDEST POP DUP3 SWAP8 POP DUP8 SWAP6 POP POP POP POP POP POP SWAP3 SWAP2 POP POP JUMP JUMPDEST PUSH0 PUSH1 0x20 DUP3 ADD SWAP1 POP DUP2 DUP2 SUB PUSH0 DUP4 ADD MSTORE PUSH2 0x2105 DUP2 DUP5 PUSH2 0x207A JUMP JUMPDEST SWAP1 POP SWAP3 SWAP2 POP POP JUMP JUMPDEST PUSH2 0x2116 DUP2 PUSH2 0x1D62 JUMP JUMPDEST DUP2 EQ PUSH2 0x2120 JUMPI PUSH0 DUP1 REVERT JUMPDEST POP JUMP JUMPDEST PUSH0 DUP2 CALLDATALOAD SWAP1 POP PUSH2 0x2131 DUP2 PUSH2 0x210D JUMP JUMPDEST SWAP3 SWAP2 POP POP JUMP JUMPDEST PUSH0 DUP1 PUSH0 PUSH1 0x60 DUP5 DUP7 SUB SLT ISZERO PUSH2 0x214E JUMPI PUSH2 0x214D PUSH2 0x1BA8 JUMP JUMPDEST JUMPDEST PUSH0 DUP5 ADD CALLDATALOAD PUSH8 0xFFFFFFFFFFFFFFFF DUP2 GT ISZERO PUSH2 0x216B JUMPI PUSH2 0x216A PUSH2 0x1BAC JUMP JUMPDEST JUMPDEST PUSH2 0x2177 DUP7 DUP3 DUP8 ADD PUSH2 0x1CBF JUMP JUMPDEST SWAP4 POP POP PUSH1 0x20 DUP5 ADD CALLDATALOAD PUSH8 0xFFFFFFFFFFFFFFFF DUP2 GT ISZERO PUSH2 0x2198 JUMPI PUSH2 0x2197 PUSH2 0x1BAC JUMP JUMPDEST JUMPDEST PUSH2 0x21A4 DUP7 DUP3 DUP8 ADD PUSH2 0x1CBF JUMP JUMPDEST SWAP3 POP POP PUSH1 0x40 PUSH2 0x21B5 DUP7 DUP3 DUP8 ADD PUSH2 0x2123 JUMP JUMPDEST SWAP2 POP POP SWAP3 POP SWAP3 POP SWAP3 JUMP JUMPDEST PUSH0 DUP3 DUP3 MSTORE PUSH1 0x20 DUP3 ADD SWAP1 POP SWAP3 SWAP2 POP POP JUMP JUMPDEST PUSH0 PUSH2 0x21D9 DUP3 PUSH2 0x1DBC JUMP JUMPDEST PUSH2 0x21E3 DUP2 DUP6 PUSH2 0x21BF JUMP JUMPDEST SWAP4 POP PUSH2 0x21F3 DUP2 DUP6 PUSH1 0x20 DUP7 ADD PUSH2 0x1DD6 JUMP JUMPDEST PUSH2 0x21FC DUP2 PUSH2 0x1BB8 JUMP JUMPDEST DUP5 ADD SWAP2 POP POP SWAP3 SWAP2 POP POP JUMP JUMPDEST PUSH2 0x2210 DUP2 PUSH2 0x1E3B JUMP JUMPDEST DUP3 MSTORE POP POP JUMP JUMPDEST PUSH0 PUSH1 0x40 DUP3 ADD SWAP1 POP DUP2 DUP2 SUB PUSH0 DUP4 ADD MSTORE PUSH2 0x222E DUP2 DUP6 PUSH2 0x21CF JUMP JUMPDEST SWAP1 POP PUSH2 0x223D PUSH1 0x20 DUP4 ADD DUP5 PUSH2 0x2207 JUMP JUMPDEST SWAP4 SWAP3 POP POP POP JUMP JUMPDEST PUSH0 DUP1 PUSH0 DUP1 PUSH1 0x80 DUP6 DUP8 SUB SLT ISZERO PUSH2 0x225C JUMPI PUSH2 0x225B PUSH2 0x1BA8 JUMP JUMPDEST JUMPDEST PUSH0 DUP6 ADD CALLDATALOAD PUSH8 0xFFFFFFFFFFFFFFFF DUP2 GT ISZERO PUSH2 0x2279 JUMPI PUSH2 0x2278 PUSH2 0x1BAC JUMP JUMPDEST JUMPDEST PUSH2 0x2285 DUP8 DUP3 DUP9 ADD PUSH2 0x1CBF JUMP JUMPDEST SWAP5 POP POP PUSH1 0x20 DUP6 ADD CALLDATALOAD PUSH8 0xFFFFFFFFFFFFFFFF DUP2 GT ISZERO PUSH2 0x22A6 JUMPI PUSH2 0x22A5 PUSH2 0x1BAC JUMP JUMPDEST JUMPDEST PUSH2 0x22B2 DUP8 DUP3 DUP9 ADD PUSH2 0x1CBF JUMP JUMPDEST SWAP4 POP POP PUSH1 0x40 PUSH2 0x22C3 DUP8 DUP3 DUP9 ADD PUSH2 0x2123 JUMP JUMPDEST SWAP3 POP POP PUSH1 0x60 DUP6 ADD CALLDATALOAD PUSH8 0xFFFFFFFFFFFFFFFF DUP2 GT ISZERO PUSH2 0x22E4 JUMPI PUSH2 0x22E3 PUSH2 0x1BAC JUMP JUMPDEST JUMPDEST PUSH2 0x22F0 DUP8 DUP3 DUP9 ADD PUSH2 0x1CBF JUMP JUMPDEST SWAP2 POP POP SWAP3 SWAP6 SWAP2 SWAP5 POP SWAP3 POP JUMP JUMPDEST PUSH0 DUP2 SWAP1 POP SWAP3 SWAP2 POP POP JUMP JUMPDEST PUSH0 PUSH2 0x2310 DUP3 PUSH2 0x1DBC JUMP JUMPDEST PUSH2 0x231A DUP2 DUP6 PUSH2 0x22FC JUMP JUMPDEST SWAP4 POP PUSH2 0x232A DUP2 DUP6 PUSH1 0x20 DUP7 ADD PUSH2 0x1DD6 JUMP JUMPDEST DUP1 DUP5 ADD SWAP2 POP POP SWAP3 SWAP2 POP POP JUMP JUMPDEST PUSH0 PUSH2 0x2341 DUP3 DUP5 PUSH2 0x2306 JUMP JUMPDEST SWAP2 POP DUP2 SWAP1 POP SWAP3 SWAP2 POP POP JUMP JUMPDEST PUSH32 0x4E487B7100000000000000000000000000000000000000000000000000000000 PUSH0 MSTORE PUSH1 0x22 PUSH1 0x4 MSTORE PUSH1 0x24 PUSH0 REVERT JUMPDEST PUSH0 PUSH1 0x2 DUP3 DIV SWAP1 POP PUSH1 0x1 DUP3 AND DUP1 PUSH2 0x2390 JUMPI PUSH1 0x7F DUP3 AND SWAP2 POP JUMPDEST PUSH1 0x20 DUP3 LT DUP2 SUB PUSH2 0x23A3 JUMPI PUSH2 0x23A2 PUSH2 0x234C JUMP JUMPDEST JUMPDEST POP SWAP2 SWAP1 POP JUMP JUMPDEST PUSH32 0x436F6D6D756E69747920646F6573206E6F742065786973742E00000000000000 PUSH0 DUP3 ADD MSTORE POP JUMP JUMPDEST PUSH0 PUSH2 0x23DD PUSH1 0x19 DUP4 PUSH2 0x21BF JUMP JUMPDEST SWAP2 POP PUSH2 0x23E8 DUP3 PUSH2 0x23A9 JUMP JUMPDEST PUSH1 0x20 DUP3 ADD SWAP1 POP SWAP2 SWAP1 POP JUMP JUMPDEST PUSH0 PUSH1 0x20 DUP3 ADD SWAP1 POP DUP2 DUP2 SUB PUSH0 DUP4 ADD MSTORE PUSH2 0x240A DUP2 PUSH2 0x23D1 JUMP JUMPDEST SWAP1 POP SWAP2 SWAP1 POP JUMP JUMPDEST PUSH32 0x526F6F6D20646F6573206E6F742065786973742E000000000000000000000000 PUSH0 DUP3 ADD MSTORE POP JUMP JUMPDEST PUSH0 PUSH2 0x2445 PUSH1 0x14 DUP4 PUSH2 0x21BF JUMP JUMPDEST SWAP2 POP PUSH2 0x2450 DUP3 PUSH2 0x2411 JUMP JUMPDEST PUSH1 0x20 DUP3 ADD SWAP1 POP SWAP2 SWAP1 POP JUMP JUMPDEST PUSH0 PUSH1 0x20 DUP3 ADD SWAP1 POP DUP2 DUP2 SUB PUSH0 DUP4 ADD MSTORE PUSH2 0x2472 DUP2 PUSH2 0x2439 JUMP JUMPDEST SWAP1 POP SWAP2 SWAP1 POP JUMP JUMPDEST PUSH32 0x596F75206D757374206A6F696E2074686520726F6F6D2066697273742E000000 PUSH0 DUP3 ADD MSTORE POP JUMP JUMPDEST PUSH0 PUSH2 0x24AD PUSH1 0x1D DUP4 PUSH2 0x21BF JUMP JUMPDEST SWAP2 POP PUSH2 0x24B8 DUP3 PUSH2 0x2479 JUMP JUMPDEST PUSH1 0x20 DUP3 ADD SWAP1 POP SWAP2 SWAP1 POP JUMP JUMPDEST PUSH0 PUSH1 0x20 DUP3 ADD SWAP1 POP DUP2 DUP2 SUB PUSH0 DUP4 ADD MSTORE PUSH2 0x24DA DUP2 PUSH2 0x24A1 JUMP JUMPDEST SWAP1 POP SWAP2 SWAP1 POP JUMP JUMPDEST PUSH0 DUP2 SWAP1 POP DUP2 PUSH0 MSTORE PUSH1 0x20 PUSH0 KECCAK256 SWAP1 POP SWAP2 SWAP1 POP JUMP JUMPDEST PUSH0 PUSH1 0x20 PUSH1 0x1F DUP4 ADD DIV SWAP1 POP SWAP2 SWAP1 POP JUMP JUMPDEST PUSH0 DUP3 DUP3 SHL SWAP1 POP SWAP3 SWAP2 POP POP JUMP JUMPDEST PUSH0 PUSH1 0x8 DUP4 MUL PUSH2 0x253D PUSH32 0xFFFFFFFFFFFFFFFFFFFFFFFFFFFFFFFFFFFFFFFFFFFFFFFFFFFFFFFFFFFFFFFF DUP3 PUSH2 0x2502 JUMP JUMPDEST PUSH2 0x2547 DUP7 DUP4 PUSH2 0x2502 JUMP JUMPDEST SWAP6 POP DUP1 NOT DUP5 AND SWAP4 POP DUP1 DUP7 AND DUP5 OR SWAP3 POP POP POP SWAP4 SWAP3 POP POP POP JUMP JUMPDEST PUSH0 DUP2 SWAP1 POP SWAP2 SWAP1 POP JUMP JUMPDEST PUSH0 PUSH2 0x2582 PUSH2 0x257D PUSH2 0x2578 DUP5 PUSH2 0x1D62 JUMP JUMPDEST PUSH2 0x255F JUMP JUMPDEST PUSH2 0x1D62 JUMP JUMPDEST SWAP1 POP SWAP2 SWAP1 POP JUMP JUMPDEST PUSH0 DUP2 SWAP1 POP SWAP2 SWAP1 POP JUMP JUMPDEST PUSH2 0x259B DUP4 PUSH2 0x2568 JUMP JUMPDEST PUSH2 0x25AF PUSH2 0x25A7 DUP3 PUSH2 0x2589 JUMP JUMPDEST DUP5 DUP5 SLOAD PUSH2 0x250E JUMP JUMPDEST DUP3 SSTORE POP POP POP POP JUMP JUMPDEST PUSH0 SWAP1 JUMP JUMPDEST PUSH2 0x25C3 PUSH2 0x25B7 JUMP JUMPDEST PUSH2 0x25CE DUP2 DUP5 DUP5 PUSH2 0x2592 JUMP JUMPDEST POP POP POP JUMP JUMPDEST JUMPDEST DUP2 DUP2 LT ISZERO PUSH2 0x25F1 JUMPI PUSH2 0x25E6 PUSH0 DUP3 PUSH2 0x25BB JUMP JUMPDEST PUSH1 0x1 DUP2 ADD SWAP1 POP PUSH2 0x25D4 JUMP JUMPDEST POP POP JUMP JUMPDEST PUSH1 0x1F DUP3 GT ISZERO PUSH2 0x2636 JUMPI PUSH2 0x2607 DUP2 PUSH2 0x24E1 JUMP JUMPDEST PUSH2 0x2610 DUP5 PUSH2 0x24F3 JUMP JUMPDEST DUP2 ADD PUSH1 0x20 DUP6 LT ISZERO PUSH2 0x261F JUMPI DUP2 SWAP1 POP JUMPDEST PUSH2 0x2633 PUSH2 0x262B DUP6 PUSH2 0x24F3 JUMP JUMPDEST DUP4 ADD DUP3 PUSH2 0x25D3 JUMP JUMPDEST POP POP JUMPDEST POP POP POP JUMP JUMPDEST PUSH0 DUP3 DUP3 SHR SWAP1 POP SWAP3 SWAP2 POP POP JUMP JUMPDEST PUSH0 PUSH2 0x2656 PUSH0 NOT DUP5 PUSH1 0x8 MUL PUSH2 0x263B JUMP JUMPDEST NOT DUP1 DUP4 AND SWAP2 POP POP SWAP3 SWAP2 POP POP JUMP JUMPDEST PUSH0 PUSH2 0x266E DUP4 DUP4 PUSH2 0x2647 JUMP JUMPDEST SWAP2 POP DUP3 PUSH1 0x2 MUL DUP3 OR SWAP1 POP SWAP3 SWAP2 POP POP JUMP JUMPDEST PUSH2 0x2687 DUP3 PUSH2 0x1DBC JUMP JUMPDEST PUSH8 0xFFFFFFFFFFFFFFFF DUP2 GT ISZERO PUSH2 0x26A0 JUMPI PUSH2 0x269F PUSH2 0x1BC8 JUMP JUMPDEST JUMPDEST PUSH2 0x26AA DUP3 SLOAD PUSH2 0x2379 JUMP JUMPDEST PUSH2 0x26B5 DUP3 DUP3 DUP6 PUSH2 0x25F5 JUMP JUMPDEST PUSH0 PUSH1 0x20 SWAP1 POP PUSH1 0x1F DUP4 GT PUSH1 0x1 DUP2 EQ PUSH2 0x26E6 JUMPI PUSH0 DUP5 ISZERO PUSH2 0x26D4 JUMPI DUP3 DUP8 ADD MLOAD SWAP1 POP JUMPDEST PUSH2 0x26DE DUP6 DUP3 PUSH2 0x2663 JUMP JUMPDEST DUP7 SSTORE POP PUSH2 0x2745 JUMP JUMPDEST PUSH1 0x1F NOT DUP5 AND PUSH2 0x26F4 DUP7 PUSH2 0x24E1 JUMP JUMPDEST PUSH0 JUMPDEST DUP3 DUP2 LT ISZERO PUSH2 0x271B JUMPI DUP5 DUP10 ADD MLOAD DUP3 SSTORE PUSH1 0x1 DUP3 ADD SWAP2 POP PUSH1 0x20 DUP6 ADD SWAP5 POP PUSH1 0x20 DUP2 ADD SWAP1 POP PUSH2 0x26F6 JUMP JUMPDEST DUP7 DUP4 LT ISZERO PUSH2 0x2738 JUMPI DUP5 DUP10 ADD MLOAD PUSH2 0x2734 PUSH1 0x1F DUP10 AND DUP3 PUSH2 0x2647 JUMP JUMPDEST DUP4 SSTORE POP JUMPDEST PUSH1 0x1 PUSH1 0x2 DUP9 MUL ADD DUP9 SSTORE POP POP POP JUMPDEST POP POP POP POP POP POP JUMP JUMPDEST PUSH0 PUSH1 0x80 DUP3 ADD SWAP1 POP DUP2 DUP2 SUB PUSH0 DUP4 ADD MSTORE PUSH2 0x2765 DUP2 DUP8 PUSH2 0x21CF JUMP JUMPDEST SWAP1 POP DUP2 DUP2 SUB PUSH1 0x20 DUP4 ADD MSTORE PUSH2 0x2779 DUP2 DUP7 PUSH2 0x21CF JUMP JUMPDEST SWAP1 POP DUP2 DUP2 SUB PUSH1 0x40 DUP4 ADD MSTORE PUSH2 0x278D DUP2 DUP6 PUSH2 0x21CF JUMP JUMPDEST SWAP1 POP PUSH2 0x279C PUSH1 0x60 DUP4 ADD DUP5 PUSH2 0x2207 JUMP JUMPDEST SWAP6 SWAP5 POP POP POP POP POP JUMP JUMPDEST PUSH32 0x436F6D6D756E697479206E616D652063616E6E6F7420626520656D7074792E00 PUSH0 DUP3 ADD MSTORE POP JUMP JUMPDEST PUSH0 PUSH2 0x27D9 PUSH1 0x1F DUP4 PUSH2 0x21BF JUMP JUMPDEST SWAP2 POP PUSH2 0x27E4 DUP3 PUSH2 0x27A5 JUMP JUMPDEST PUSH1 0x20 DUP3 ADD SWAP1 POP SWAP2 SWAP1 POP JUMP JUMPDEST PUSH0 PUSH1 0x20 DUP3 ADD SWAP1 POP DUP2 DUP2 SUB PUSH0 DUP4 ADD MSTORE PUSH2 0x2806 DUP2 PUSH2 0x27CD JUMP JUMPDEST SWAP1 POP SWAP2 SWAP1 POP JUMP JUMPDEST PUSH32 0x436F6D6D756E69747920616C7265616479206578697374732E00000000000000 PUSH0 DUP3 ADD MSTORE POP JUMP JUMPDEST PUSH0 PUSH2 0x2841 PUSH1 0x19 DUP4 PUSH2 0x21BF JUMP JUMPDEST SWAP2 POP PUSH2 0x284C DUP3 PUSH2 0x280D JUMP JUMPDEST PUSH1 0x20 DUP3 ADD SWAP1 POP SWAP2 SWAP1 POP JUMP JUMPDEST PUSH0 PUSH1 0x20 DUP3 ADD SWAP1 POP DUP2 DUP2 SUB PUSH0 DUP4 ADD MSTORE PUSH2 0x286E DUP2 PUSH2 0x2835 JUMP JUMPDEST SWAP1 POP SWAP2 SWAP1 POP JUMP JUMPDEST PUSH0 PUSH1 0x20 DUP3 ADD SWAP1 POP DUP2 DUP2 SUB PUSH0 DUP4 ADD MSTORE PUSH2 0x288D DUP2 DUP5 PUSH2 0x21CF JUMP JUMPDEST SWAP1 POP SWAP3 SWAP2 POP POP JUMP JUMPDEST PUSH32 0x496E646578206F7574206F6620626F756E64732E000000000000000000000000 PUSH0 DUP3 ADD MSTORE POP JUMP JUMPDEST PUSH0 PUSH2 0x28C9 PUSH1 0x14 DUP4 PUSH2 0x21BF JUMP JUMPDEST SWAP2 POP PUSH2 0x28D4 DUP3 PUSH2 0x2895 JUMP JUMPDEST PUSH1 0x20 DUP3 ADD SWAP1 POP SWAP2 SWAP1 POP JUMP JUMPDEST PUSH0 PUSH1 0x20 DUP3 ADD SWAP1 POP DUP2 DUP2 SUB PUSH0 DUP4 ADD MSTORE PUSH2 0x28F6 DUP2 PUSH2 0x28BD JUMP JUMPDEST SWAP1 POP SWAP2 SWAP1 POP JUMP JUMPDEST PUSH32 0x4E487B7100000000000000000000000000000000000000000000000000000000 PUSH0 MSTORE PUSH1 0x32 PUSH1 0x4 MSTORE PUSH1 0x24 PUSH0 REVERT JUMPDEST PUSH32 0x4F6E6C792074686520617574686F722063616E2065646974207468697320706F PUSH0 DUP3 ADD MSTORE PUSH32 0x73742E0000000000000000000000000000000000000000000000000000000000 PUSH1 0x20 DUP3 ADD MSTORE POP JUMP JUMPDEST PUSH0 PUSH2 0x2984 PUSH1 0x23 DUP4 PUSH2 0x21BF JUMP JUMPDEST SWAP2 POP PUSH2 0x298F DUP3 PUSH2 0x292A JUMP JUMPDEST PUSH1 0x40 DUP3 ADD SWAP1 POP SWAP2 SWAP1 POP JUMP JUMPDEST PUSH0 PUSH1 0x20 DUP3 ADD SWAP1 POP DUP2 DUP2 SUB PUSH0 DUP4 ADD MSTORE PUSH2 0x29B1 DUP2 PUSH2 0x2978 JUMP JUMPDEST SWAP1 POP SWAP2 SWAP1 POP JUMP JUMPDEST PUSH0 PUSH1 0x80 DUP3 ADD SWAP1 POP DUP2 DUP2 SUB PUSH0 DUP4 ADD MSTORE PUSH2 0x29D0 DUP2 DUP8 PUSH2 0x21CF JUMP JUMPDEST SWAP1 POP DUP2 DUP2 SUB PUSH1 0x20 DUP4 ADD MSTORE PUSH2 0x29E4 DUP2 DUP7 PUSH2 0x21CF JUMP JUMPDEST SWAP1 POP PUSH2 0x29F3 PUSH1 0x40 DUP4 ADD DUP6 PUSH2 0x1D6B JUMP JUMPDEST DUP2 DUP2 SUB PUSH1 0x60 DUP4 ADD MSTORE PUSH2 0x2A05 DUP2 DUP5 PUSH2 0x21CF JUMP JUMPDEST SWAP1 POP SWAP6 SWAP5 POP POP POP POP POP JUMP JUMPDEST PUSH32 0x526F6F6D206E616D652063616E6E6F7420626520656D7074792E000000000000 PUSH0 DUP3 ADD MSTORE POP JUMP JUMPDEST PUSH0 PUSH2 0x2A44 PUSH1 0x1A DUP4 PUSH2 0x21BF JUMP JUMPDEST SWAP2 POP PUSH2 0x2A4F DUP3 PUSH2 0x2A10 JUMP JUMPDEST PUSH1 0x20 DUP3 ADD SWAP1 POP SWAP2 SWAP1 POP JUMP JUMPDEST PUSH0 PUSH1 0x20 DUP3 ADD SWAP1 POP DUP2 DUP2 SUB PUSH0 DUP4 ADD MSTORE PUSH2 0x2A71 DUP2 PUSH2 0x2A38 JUMP JUMPDEST SWAP1 POP SWAP2 SWAP1 POP JUMP JUMPDEST PUSH32 0x526F6F6D20616C7265616479206578697374732E000000000000000000000000 PUSH0 DUP3 ADD MSTORE POP JUMP JUMPDEST PUSH0 PUSH2 0x2AAC PUSH1 0x14 DUP4 PUSH2 0x21BF JUMP JUMPDEST SWAP2 POP PUSH2 0x2AB7 DUP3 PUSH2 0x2A78 JUMP JUMPDEST PUSH1 0x20 DUP3 ADD SWAP1 POP SWAP2 SWAP1 POP JUMP JUMPDEST PUSH0 PUSH1 0x20 DUP3 ADD SWAP1 POP DUP2 DUP2 SUB PUSH0 DUP4 ADD MSTORE PUSH2 0x2AD9 DUP2 PUSH2 0x2AA0 JUMP JUMPDEST SWAP1 POP SWAP2 SWAP1 POP JUMP JUMPDEST PUSH0 PUSH1 0x40 DUP3 ADD SWAP1 POP DUP2 DUP2 SUB PUSH0 DUP4 ADD MSTORE PUSH2 0x2AF8 DUP2 DUP6 PUSH2 0x21CF JUMP JUMPDEST SWAP1 POP DUP2 DUP2 SUB PUSH1 0x20 DUP4 ADD MSTORE PUSH2 0x2B0C DUP2 DUP5 PUSH2 0x21CF JUMP JUMPDEST SWAP1 POP SWAP4 SWAP3 POP POP POP JUMP JUMPDEST PUSH32 0x4F6E6C792074686520617574686F722063616E2064656C657465207468697320 PUSH0 DUP3 ADD MSTORE PUSH32 0x706F73742E000000000000000000000000000000000000000000000000000000 PUSH1 0x20 DUP3 ADD MSTORE POP JUMP JUMPDEST PUSH0 PUSH2 0x2B6F PUSH1 0x25 DUP4 PUSH2 0x21BF JUMP JUMPDEST SWAP2 POP PUSH2 0x2B7A DUP3 PUSH2 0x2B15 JUMP JUMPDEST PUSH1 0x40 DUP3 ADD SWAP1 POP SWAP2 SWAP1 POP JUMP JUMPDEST PUSH0 PUSH1 0x20 DUP3 ADD SWAP1 POP DUP2 DUP2 SUB PUSH0 DUP4 ADD MSTORE PUSH2 0x2B9C DUP2 PUSH2 0x2B63 JUMP JUMPDEST SWAP1 POP SWAP2 SWAP1 POP JUMP JUMPDEST PUSH32 0x4E487B7100000000000000000000000000000000000000000000000000000000 PUSH0 MSTORE PUSH1 0x11 PUSH1 0x4 MSTORE PUSH1 0x24 PUSH0 REVERT JUMPDEST PUSH0 PUSH2 0x2BDA DUP3 PUSH2 0x1D62 JUMP JUMPDEST SWAP2 POP PUSH2 0x2BE5 DUP4 PUSH2 0x1D62 JUMP JUMPDEST SWAP3 POP DUP3 DUP3 SUB SWAP1 POP DUP2 DUP2 GT ISZERO PUSH2 0x2BFD JUMPI PUSH2 0x2BFC PUSH2 0x2BA3 JUMP JUMPDEST JUMPDEST SWAP3 SWAP2 POP POP JUMP JUMPDEST PUSH0 DUP2 SLOAD SWAP1 POP PUSH2 0x2C11 DUP2 PUSH2 0x2379 JUMP JUMPDEST SWAP1 POP SWAP2 SWAP1 POP JUMP JUMPDEST DUP2 DUP2 SUB PUSH2 0x2C26 JUMPI POP POP PUSH2 0x2CFB JUMP JUMPDEST PUSH2 0x2C2F DUP3 PUSH2 0x2C03 JUMP JUMPDEST PUSH8 0xFFFFFFFFFFFFFFFF DUP2 GT ISZERO PUSH2 0x2C48 JUMPI PUSH2 0x2C47 PUSH2 0x1BC8 JUMP JUMPDEST JUMPDEST PUSH2 0x2C52 DUP3 SLOAD PUSH2 0x2379 JUMP JUMPDEST PUSH2 0x2C5D DUP3 DUP3 DUP6 PUSH2 0x25F5 JUMP JUMPDEST PUSH0 PUSH1 0x1F DUP4 GT PUSH1 0x1 DUP2 EQ PUSH2 0x2C8A JUMPI PUSH0 DUP5 ISZERO PUSH2 0x2C78 JUMPI DUP3 DUP8 ADD SLOAD SWAP1 POP JUMPDEST PUSH2 0x2C82 DUP6 DUP3 PUSH2 0x2663 JUMP JUMPDEST DUP7 SSTORE POP PUSH2 0x2CF4 JUMP JUMPDEST PUSH1 0x1F NOT DUP5 AND PUSH2 0x2C98 DUP8 PUSH2 0x24E1 JUMP JUMPDEST SWAP7 POP PUSH2 0x2CA3 DUP7 PUSH2 0x24E1 JUMP JUMPDEST PUSH0 JUMPDEST DUP3 DUP2 LT ISZERO PUSH2 0x2CCA JUMPI DUP5 DUP10 ADD SLOAD DUP3 SSTORE PUSH1 0x1 DUP3 ADD SWAP2 POP PUSH1 0x1 DUP6 ADD SWAP5 POP PUSH1 0x20 DUP2 ADD SWAP1 POP PUSH2 0x2CA5 JUMP JUMPDEST DUP7 DUP4 LT ISZERO PUSH2 0x2CE7 JUMPI DUP5 DUP10 ADD SLOAD PUSH2 0x2CE3 PUSH1 0x1F DUP10 AND DUP3 PUSH2 0x2647 JUMP JUMPDEST DUP4 SSTORE POP JUMPDEST PUSH1 0x1 PUSH1 0x2 DUP9 MUL ADD DUP9 SSTORE POP POP POP JUMPDEST POP POP POP POP POP POP JUMPDEST JUMP JUMPDEST PUSH32 0x4E487B7100000000000000000000000000000000000000000000000000000000 PUSH0 MSTORE PUSH1 0x31 PUSH1 0x4 MSTORE PUSH1 0x24 PUSH0 REVERT JUMPDEST PUSH0 PUSH1 0x60 DUP3 ADD SWAP1 POP DUP2 DUP2 SUB PUSH0 DUP4 ADD MSTORE PUSH2 0x2D42 DUP2 DUP7 PUSH2 0x21CF JUMP JUMPDEST SWAP1 POP DUP2 DUP2 SUB PUSH1 0x20 DUP4 ADD MSTORE PUSH2 0x2D56 DUP2 DUP6 PUSH2 0x21CF JUMP JUMPDEST SWAP1 POP PUSH2 0x2D65 PUSH1 0x40 DUP4 ADD DUP5 PUSH2 0x1D6B JUMP JUMPDEST SWAP5 SWAP4 POP POP POP POP JUMP JUMPDEST PUSH0 PUSH1 0x60 DUP3 ADD SWAP1 POP DUP2 DUP2 SUB PUSH0 DUP4 ADD MSTORE PUSH2 0x2D85 DUP2 DUP7 PUSH2 0x21CF JUMP JUMPDEST SWAP1 POP DUP2 DUP2 SUB PUSH1 0x20 DUP4 ADD MSTORE PUSH2 0x2D99 DUP2 DUP6 PUSH2 0x21CF JUMP JUMPDEST SWAP1 POP PUSH2 0x2DA8 PUSH1 0x40 DUP4 ADD DUP5 PUSH2 0x2207 JUMP JUMPDEST SWAP5 SWAP4 POP POP POP POP JUMP INVALID LOG2 PUSH5 0x6970667358 0x22 SLT KECCAK256 0x24 DUP12 PUSH32 0x4A93909464B79C55A76D140206D71D4E68E6A46EC5276DB4E56C3887B464736F PUSH13 0x634300081A0033000000000000 "
		},
		"gasEstimates": {
			"creation": {
				"codeDepositCost": "2350000",
				"executionCost": "2521",
				"totalCost": "2352521"
			},
			"external": {
				"addCommunity(string)": "infinite",
				"addRoom(string,string)": "infinite",
				"deletePost(string,string,uint256)": "infinite",
				"editPost(string,string,uint256,string)": "infinite",
				"getCommunityNames()": "infinite",
				"getPost(string,string,uint256)": "infinite",
				"getRoomNames(string)": "infinite",
				"getRoomPosts(string,string)": "infinite",
				"getTotalRoomPosts(string,string)": "infinite",
				"joinRoom(string,string)": "infinite",
				"publishPost(string,string,string)": "infinite"
			}
		},
		"methodIdentifiers": {
			"addCommunity(string)": "43792cb4",
			"addRoom(string,string)": "af769690",
			"deletePost(string,string,uint256)": "e98980b0",
			"editPost(string,string,uint256,string)": "64e87a66",
			"getCommunityNames()": "49cc5136",
			"getPost(string,string,uint256)": "62a0b4fd",
			"getRoomNames(string)": "fa750843",
			"getRoomPosts(string,string)": "196c0a1d",
			"getTotalRoomPosts(string,string)": "00c310bb",
			"joinRoom(string,string)": "fcfcfd01",
			"publishPost(string,string,string)": "3275d065"
		}
	},
	"abi": [
		{
			"anonymous": false,
			"inputs": [
				{
					"indexed": false,
					"internalType": "string",
					"name": "communityName",
					"type": "string"
				}
			],
			"name": "CommunityAdded",
			"type": "event"
		},
		{
			"anonymous": false,
			"inputs": [
				{
					"indexed": false,
					"internalType": "string",
					"name": "communityName",
					"type": "string"
				},
				{
					"indexed": false,
					"internalType": "string",
					"name": "roomName",
					"type": "string"
				},
				{
					"indexed": false,
					"internalType": "uint256",
					"name": "index",
					"type": "uint256"
				}
			],
			"name": "PostDeleted",
			"type": "event"
		},
		{
			"anonymous": false,
			"inputs": [
				{
					"indexed": false,
					"internalType": "string",
					"name": "communityName",
					"type": "string"
				},
				{
					"indexed": false,
					"internalType": "string",
					"name": "roomName",
					"type": "string"
				},
				{
					"indexed": false,
					"internalType": "uint256",
					"name": "index",
					"type": "uint256"
				},
				{
					"indexed": false,
					"internalType": "string",
					"name": "newMessage",
					"type": "string"
				}
			],
			"name": "PostEdited",
			"type": "event"
		},
		{
			"anonymous": false,
			"inputs": [
				{
					"indexed": false,
					"internalType": "string",
					"name": "communityName",
					"type": "string"
				},
				{
					"indexed": false,
					"internalType": "string",
					"name": "roomName",
					"type": "string"
				},
				{
					"indexed": false,
					"internalType": "string",
					"name": "message",
					"type": "string"
				},
				{
					"indexed": false,
					"internalType": "address",
					"name": "author",
					"type": "address"
				}
			],
			"name": "PostPublished",
			"type": "event"
		},
		{
			"anonymous": false,
			"inputs": [
				{
					"indexed": false,
					"internalType": "string",
					"name": "communityName",
					"type": "string"
				},
				{
					"indexed": false,
					"internalType": "string",
					"name": "roomName",
					"type": "string"
				}
			],
			"name": "RoomAdded",
			"type": "event"
		},
		{
			"anonymous": false,
			"inputs": [
				{
					"indexed": false,
					"internalType": "string",
					"name": "communityName",
					"type": "string"
				},
				{
					"indexed": false,
					"internalType": "string",
					"name": "roomName",
					"type": "string"
				},
				{
					"indexed": false,
					"internalType": "address",
					"name": "user",
					"type": "address"
				}
			],
			"name": "UserJoinedRoom",
			"type": "event"
		},
		{
			"inputs": [
				{
					"internalType": "string",
					"name": "_communityName",
					"type": "string"
				}
			],
			"name": "addCommunity",
			"outputs": [],
			"stateMutability": "nonpayable",
			"type": "function"
		},
		{
			"inputs": [
				{
					"internalType": "string",
					"name": "_communityName",
					"type": "string"
				},
				{
					"internalType": "string",
					"name": "_roomName",
					"type": "string"
				}
			],
			"name": "addRoom",
			"outputs": [],
			"stateMutability": "nonpayable",
			"type": "function"
		},
		{
			"inputs": [
				{
					"internalType": "string",
					"name": "_communityName",
					"type": "string"
				},
				{
					"internalType": "string",
					"name": "_roomName",
					"type": "string"
				},
				{
					"internalType": "uint256",
					"name": "index",
					"type": "uint256"
				}
			],
			"name": "deletePost",
			"outputs": [],
			"stateMutability": "nonpayable",
			"type": "function"
		},
		{
			"inputs": [
				{
					"internalType": "string",
					"name": "_communityName",
					"type": "string"
				},
				{
					"internalType": "string",
					"name": "_roomName",
					"type": "string"
				},
				{
					"internalType": "uint256",
					"name": "index",
					"type": "uint256"
				},
				{
					"internalType": "string",
					"name": "_newMessage",
					"type": "string"
				}
			],
			"name": "editPost",
			"outputs": [],
			"stateMutability": "nonpayable",
			"type": "function"
		},
		{
			"inputs": [],
			"name": "getCommunityNames",
			"outputs": [
				{
					"internalType": "string[]",
					"name": "",
					"type": "string[]"
				}
			],
			"stateMutability": "view",
			"type": "function"
		},
		{
			"inputs": [
				{
					"internalType": "string",
					"name": "_communityName",
					"type": "string"
				},
				{
					"internalType": "string",
					"name": "_roomName",
					"type": "string"
				},
				{
					"internalType": "uint256",
					"name": "index",
					"type": "uint256"
				}
			],
			"name": "getPost",
			"outputs": [
				{
					"internalType": "string",
					"name": "",
					"type": "string"
				},
				{
					"internalType": "address",
					"name": "",
					"type": "address"
				}
			],
			"stateMutability": "view",
			"type": "function"
		},
		{
			"inputs": [
				{
					"internalType": "string",
					"name": "_communityName",
					"type": "string"
				}
			],
			"name": "getRoomNames",
			"outputs": [
				{
					"internalType": "string[]",
					"name": "",
					"type": "string[]"
				}
			],
			"stateMutability": "view",
			"type": "function"
		},
		{
			"inputs": [
				{
					"internalType": "string",
					"name": "_communityName",
					"type": "string"
				},
				{
					"internalType": "string",
					"name": "_roomName",
					"type": "string"
				}
			],
			"name": "getRoomPosts",
			"outputs": [
				{
					"components": [
						{
							"internalType": "string",
							"name": "message",
							"type": "string"
						},
						{
							"internalType": "address",
							"name": "author",
							"type": "address"
						}
					],
					"internalType": "struct MiniSocial.Post[]",
					"name": "",
					"type": "tuple[]"
				}
			],
			"stateMutability": "view",
			"type": "function"
		},
		{
			"inputs": [
				{
					"internalType": "string",
					"name": "_communityName",
					"type": "string"
				},
				{
					"internalType": "string",
					"name": "_roomName",
					"type": "string"
				}
			],
			"name": "getTotalRoomPosts",
			"outputs": [
				{
					"internalType": "uint256",
					"name": "",
					"type": "uint256"
				}
			],
			"stateMutability": "view",
			"type": "function"
		},
		{
			"inputs": [
				{
					"internalType": "string",
					"name": "_communityName",
					"type": "string"
				},
				{
					"internalType": "string",
					"name": "_roomName",
					"type": "string"
				}
			],
			"name": "joinRoom",
			"outputs": [],
			"stateMutability": "nonpayable",
			"type": "function"
		},
		{
			"inputs": [
				{
					"internalType": "string",
					"name": "_communityName",
					"type": "string"
				},
				{
					"internalType": "string",
					"name": "_roomName",
					"type": "string"
				},
				{
					"internalType": "string",
					"name": "_message",
					"type": "string"
				}
			],
			"name": "publishPost",
			"outputs": [],
			"stateMutability": "nonpayable",
			"type": "function"
		}
	]
}